S02800002E2F44656275672F73706F6F7079735F62697A617272655F616476656E747572652E733139C1
S315200000000248854600F004F8FEE7C04600C00120FD
S3152000001080B59CB000AF00F081FA00F0B5FC01F08D
S315200000202EF818213F2000F029FC1821C02000F0CE
S3152000003025FC0121012000F0DAFFA14B180001F078
S315200000400AF80221012000F0D2FF9E4B180001F091
S3152000005002F85423FB1800221A705423FB1800229E
S315200000605A705423FB1800225A6097495423F818D3
S315200000701023102201F0E4F83023FB185422BA187A
S315200000801A603023FB1800225A603023FB18002206
S315200000909A603023FB18FA225200DA603023FB18CC
S315200000A0FA2252001A613023FB18884A5A613023FB
S315200000B0FB18874A9A613023FB18864ADA61302377
S315200000C0FB18854A1A623023FB187B662823FB1807
S315200000D000221A702823FB1800225A702823FB18A6
S315200000E000225A602823FB183B667C49386E102371
S315200000F0102201F0A5F83B1D3A6E1A603B1D002226
S315200001005A603B1D00229A603B1DFA225200DA609B
S315200001103B1DFA2252001A613B1D6C4A5A613B1D57
S315200001206B4A9A613B1D6E4ADA613B1D6D4A1A6223
S315200001303B1DFB650023FB6609E001F097F90100F2
S315200001403B1DFA6E9200D150FB6E0133FB66FB6EAF
S31520000150002BF2DB3A1DF96D7B6E180000F042F998
S315200001607B6E5B697A6E1000984718213F2000F05D
S3152000017085FB1821C02000F081FBFB6D5B69FA6DC1
S31520000180100098470023BB660DE03B1DBA6E920017
S31520000190D3585B693A1DB96E89008A581000984772
S315200001A0BB6E0133BB66BB6E002BEEDB4E4BF022E3
S315200001B05A754D4B4C4A527CD2B21A7500F0B4FF98
S315200001C00300DAB2494B1A70484B1B78042B0FD028
S315200001D002DC022B14D022E0062B02D0082B17D0EB
S315200001E01DE07B6E1B6A786E0022012198471DE078
S315200001F07B6E1B6A01225142786E0022984715E0D9
S315200002007B6E1B6A01225242786E002198470DE0D0
S315200002107B6E1B6A786E01220021984706E07B6E72
S315200002201B6A786E002200219847C0467B6E180014
S3152000023000F088F87B6E180001F0A0F918213F2005
S3152000024000F01CFB1821C02000F018FBFA2001F05A
S31520000250FDF9274B1B78002B00D1AAE7C04600F0FA
S315200002600EFF00F091FB7B6E1B681B785B08DBB2F0
S315200002701A0040239A1A7B6EDA607B6E1B685B78C5
S315200002805B08DBB21A0020239A1A7B6E1A617B6EFA
S315200002905B697A6E100098470121012000F0A7FEC5
S315200002A0144B180000F0D7FE0221012000F09FFE1B
S315200002B0114B180000F0CFFEC046BD461CB080BDD5
S315200002C0F0160020FC160020901600204713002070
S315200002D0691300208B13002029140020D01600203B
S315200002E04914002059140020000C02406C160020EE
S315200002F06D160020101700202417002080B500AFAF
S315200003000D4B5B696022134012D000F00DFF0300F5
S31520000310DAB20A4B1A700A4BF0225A75064B5B6901
S31520000320602213401900044B034A52690A435A615A
S31520000330C046BD4680BDC046003C01406C1600202C
S31520000340000C024090B587B000AF78607B68DB6810
S315200003500133002B00DA0F331B117B617B681B698D
S315200003600133002B00DA0F331B113B617B685A687F
S315200003707B69D2187B6899683B69CB18174992002C
S315200003808A18D35CFB60FB68022B08D0032B09D1AB
S315200003907B681B6A78680022002198470EE0104B84
S315200003A001221A707B681C6A7B685B6819017B686E
S315200003B09B681A017B681800A047C046074A7B69DC
S315200003C09B00D2183B69D3181B78022B02D1044B11
S315200003D001221A70C046BD4607B090BD7016002097
S315200003E06D16002090B5A1B000AFF860B9607A60B4
S315200003F00023FB6713E00023BB670AE0444AFB6F38
S315200004009B00D218BB6FD31800221A70BB6F013322
S31520000410BB67BB6F032BF1DDFB6F0133FB67FB6F04
S31520000420072BE8DD00233B670023FB66384A3B6F3A
S315200004309B00D218FB6ED31801221A703B6F1A014B
S31520000440FB68DA60FB6E1A01FB681A610723BB663C
S3152000045003237B662E4ABB6E9B00D2187B6ED31875
S3152000046002221A70BB6E1A01BB68DA607B6E1A0113
S31520000470BB681A613C23FB18264A13CA13C313CA46
S3152000048013C313CA13C312681A601423FB18224A13
S3152000049013CA13C313CA13C313CA13C312681A6029
S315200004A000237B6729E03C23FB187A6F9200D25801
S315200004B01423FB18796F8900CB58154992008A18A6
S315200004C00321D1547B6F9B007A68D3181B683C228A
S315200004D0BA18796F89008A581201DA607B6F9B00FF
S315200004E07A68D3181B681422BA18796F89008A583B
S315200004F012011A617B6F01337B677B6F272B02D832
S315200005007B6F002BCFDBC046BD4621B090BDC046D9
S3152000051070160020A0170020C817002080B500AF55
S31520000520204B18221A602A4880471F4B1E4A126801
S31520000530120C12041A601C4B1B4A12681B490A43F0
S315200005401A6000F0DBFB00F0E9FB00F0EFF900F0A9
S31520000550BBFD174B174A1A61174B60221A60164BC0
S31520000560154AD26860210A43DA60134B124A926810
S3152000057060210A439A60114B114A1A60114B104AA6
S315200005801A60114B104A1268802109040A431A6026
S315200005900E4B0E4A1268802149000A431A60C04653
S315200005A0BD4680BD30380240000C02405555000043
S315200005B00038014033330000003C01409CC001203C
S315200005C0FD020020E0C0012000E100E004E100E09F
S315200005D00902000880B584B000AF0200FB1D1A7026
S315200005E0134A134B1B7DDBB204218B43DBB21375FD
S315200005F00F4A0F23FB18127D1A700F23FB180F22A8
S31520000600B918FA1D097812780A431A700F23FB18B5
S315200006100F22BA18127804218A431A70044A0F232B
S31520000620FB181B781375C046BD4604B080BDC04676
S315200006300010024080B584B000AF0200FB1D1A7086
S31520000640154A154B1B7DDBB204218B43DBB2137598
S31520000650114A0F23FB18127D1A70FB1D1B785BB203
S31520000660DB435BB20F22BA18127852B213405AB249
S315200006700F23FB181A700F23FB180F22BA181278B3
S3152000068004218A431A70044A0F23FB181B7813751A
S31520000690C046BD4604B080BD0010024080B582B081
S315200006A000AF0200FB1D1A70FB1D1B78082B0CD017
S315200006B002DC002B05D01AE0102B0DD0182B12D0FF
S315200006C015E01820FFF7B6FF11E01020FFF7B2FF64
S315200006D00820FFF77FFF0AE00820FFF7ABFF102076
S315200006E0FFF778FF03E01820FFF774FFC046C046E7
S315200006F0BD4602B080BD80B582B000AF4020FFF776
S3152000070099FF174B174A1A600120FFF793FF022023
S31520000710FFF760FF00F07CFF4020FFF75BFF00F053
S3152000072077FF0F4AFB1D527C1A704020FFF782FF8D
S3152000073000F06EFFFB1DFA1D12787F218A431A7086
S31520000740FB1D1B78002B00D0E6E7C0464020FFF7B4
S3152000075041FF034B044A1A60C046BD4602B080BD25
S3152000076000100240555500005555555580B584B0AA
S3152000077000AF0200FB1D1A704020FFF75BFF1C4BE9
S315200007801C4A1A600320FFF725FFFB1D1B78180063
S31520000790FFF784FF00F03CFF4020FFF71BFF00F02F
S315200007A037FF134A0F23FB18527C1A704020FFF79D
S315200007B041FF0F4B104A1A60FB1D1B78082213407D
S315200007C004D00820FFF76AFFFFF795FFFB1D1B7873
S315200007D01022134004D01020FFF760FFFFF78BFF95
S315200007E00F23FB181B781800BD4604B080BDC046F9
S315200007F000100240555500005555555580B582B01C
S3152000080000AF0200FB1D1A70BB1D0A1C1A701A4A83
S31520000810FB1D1B785375BB1D1B781800FFF73EFF89
S3152000082000F0F6FE4020FFF7D5FE00F0F1FE402056
S31520000830FFF700FFBB1D1B780822134004D00820B9
S31520000840FFF72CFFFFF757FFBB1D1B781022134025
S3152000085004D01020FFF722FFFFF74DFF064B0022A2
S315200008605A754020FFF7B6FE0020FFF717FFC04657
S31520000870BD4602B080BDC0460010024080B582B0A1
S3152000088000AF0200FB1D1A70BB1D0A1C1A70402007
S31520000890FFF7D0FEBB1D1B781800FFF7FFFE0320D5
S315200008A0FFF7C8FEBB1D1A78FB1D1B781100180028
S315200008B0FFF7A4FFC046BD4602B080BD80B582B01A
S315200008C000AF0200FB1D1A70BB1D0A1C1A704020C7
S315200008D0FFF7B0FEBB1D1B781800FFF7DFFE0120D7
S315200008E0FFF778FE0220FFF7A5FEBB1D1A78FB1D39
S315200008F01B7811001800FFF781FFC046BD4602B0E5
S3152000090080BD80B582B000AF0200FB1D1A70FB1DB2
S315200009101B781800FFF72AFFFB1D1B781800FFF72E
S3152000092025FF03001800BD4602B080BD80B500AF8C
S315200009304020FFF74FFE0A2000F073FE7820FFF7D5
S3152000094079FE1E2000F082FE2020FFF743FE642061
S3152000095000F07CFE18213E20FFF790FF18213F2053
S31520000960FFF78CFF1821C020FFF788FF18214020B1
S31520000970FFF784FF1821B820FFF780FF0020FFF73C
S315200009808DFEC046BD4680BD80B582B000AFFB1D42
S3152000099000221A7023E0FB1D1B7848225242134383
S315200009A0DBB218211800FFF769FF18214020FFF756
S315200009B065FFBB1D00221A7008E018210020FFF7F2
S315200009C07DFFBB1D1A78BB1D01321A70BB1D1B781B
S315200009D03F2BF2D9FB1D1A78FB1D01321A70FB1D25
S315200009E01B78072BD7D9C046BD4602B080BD90B52F
S315200009F085B000AF040008001100FB1D221C1A70F0
S31520000A00BB1D021C1A707B1D0A1C1A70FB1D1B784D
S31520000A10002B00D1B4E0FB1D1B78802B00D9AFE062
S31520000A20BB1D1B78002B00D1ACE0BB1D1B78402BD7
S31520000A3000D9A7E07B1D1B78012B04D07B1D1B78DA
S31520000A40002B00D0A0E0BB1D1B78013B002B00DA59
S31520000A500733DB101A000C23FB181A700F23FB1820
S31520000A6001221A700F23FB181A78BB1D1B78013B35
S31520000A7047490B4004D5013B082149420B4301332A
S31520000A809A400F23FB181A707B1D1B78002B06D16A
S31520000A900F23FB180F22BA181278D2431A70FB1DA7
S31520000AA01B78402B0AD90D23FB1810221A700E230F
S31520000AB0FB18FA1D1278413A1A7009E00D23FB182B
S31520000AC008221A700E23FB18FA1D1278013A1A70A2
S31520000AD00E23FB181B7840221343DAB20D23FB1892
S31520000AE01B7819001000FFF7C9FE0C23FB181B7892
S31520000AF0482252421343DAB20D23FB181B78190001
S31520000B001000FFF7BBFE0B23FC180D23FB181B78E8
S31520000B101800FFF7F6FE030023700E23FB181B7840
S31520000B2040221343DAB20D23FB181B78190010005C
S31520000B30FFF7A4FE7B1D1B78012B0AD10F23FB1880
S31520000B400F22B9180B22BA18097812780A431A709C
S31520000B5009E00F23FB180F22BA180B2179181278F7
S31520000B6009780A401A700D23FB181A780F23FB18F0
S31520000B701B7811001800FFF7A1FE00F049FD04E0E4
S31520000B80C04602E0C04600E0C046BD4605B090BD66
S31520000B900700008080B584B000AF78600023FB603A
S31520000BA020E07B681A68FB6804335B00D3180433A3
S31520000BB01A787B68DB68DBB2D318D8B27B681A68F0
S31520000BC0FB6804335B00D31805331A787B681B69EE
S31520000BD0DBB2D318DBB201221900FFF708FFFB684E
S31520000BE00133FB607B681B681A68FB689A42D8DC75
S31520000BF0C046BD4604B080BD80B584B000AF7860E5
S31520000C000023FB6020E07B681A68FB6804335B00E6
S31520000C10D31804331A787B68DB68DBB2D318D8B2D2
S31520000C207B681A68FB6804335B00D31805331A788F
S31520000C307B681B69DBB2D318DBB200221900FFF7F1
S31520000C40D6FEFB680133FB607B681B681A68FB686D
S31520000C509A42D8DCC046BD4604B080BD80B582B07D
S31520000C6000AF78607B681800FFF7C6FF7B68DA68FC
S31520000C707B685B68D2187B68DA607B681A697B6858
S31520000C809B68D2187B681A617B68DB68002B07DDBE
S31520000C907B68DA687B681B685B68D318802B04DD69
S31520000CA07B685B685A427B685A607B681B69002BAD
S31520000CB007DD7B681A697B681B689B68D318402B05
S31520000CC004DD7B689B685A427B689A607B681800C3
S31520000CD0FFF760FFC046BD4602B080BD80B584B038
S31520000CE000AFF860B9607A60FB68BA685A60FB6842
S31520000CF07A689A60C046BD4604B080BD80B500AF14
S31520000D00044B054A1A60034B034A9A60C046BD4607
S31520000D1080BDC046001002405555555580B500AFE0
S31520000D200C4B0D4A1A6001222721382000F012F9B7
S31520000D30012227210E2000F00DF900220221012098
S31520000D4000F008F901222721062000F003F9C04609
S31520000D50BD4680BD001002405555555580B584B01E
S31520000D6000AF0200FB1D1A70104A104B1B7DDBB230
S31520000D7004210B43DBB213750C4A0F23FB18127D9B
S31520000D801A700F23FB180F22B918FA1D097812784A
S31520000D900A431A70054A0F23FB181B7804210B43BC
S31520000DA0DBB21375C046BD4604B080BD00100240BC
S31520000DB080B584B000AF0200FB1D1A70134A134B96
S31520000DC01B7DDBB204210B43DBB213750F4A0F23C5
S31520000DD0FB18127D1A70FB1D1B785BB2DB435BB2DE
S31520000DE00F22BA18127852B213405AB20F23FB18A8
S31520000DF01A70064A0F23FB181B7804210B43DBB21B
S31520000E001375C046BD4604B080BDC04600100240E2
S31520000E1080B582B000AF0200FB1D1A700120FFF7DB
S31520000E20C7FF0220FFF7C4FFFB1D1B78180000F048
S31520000E3061F8C046BD4602B080BD80B582B000AF25
S31520000E400200FB1D1A700120FFF788FF0220FFF722
S31520000E50AFFFFB1D1B78180000F04CF8C046BD46BE
S31520000E6002B080BD90B583B000AF0E4B0D4A12681C
S31520000E701204120C1A600220FFF770FF0120FFF700
S31520000E806DFFFC1D00F04EF803002370054B054A4C
S31520000E90126805490A431A60FB1D1B781800BD46D7
S31520000EA003B090BD001002400000555590B583B0A8
S31520000EB000AF0E4B0D4A12681204120C1A60012064
S31520000EC0FFF776FF0220FFF749FFFC1D00F02AF806
S31520000ED003002370054B054A126805490A431A6028
S31520000EE0FB1D1B781800BD4603B090BD00100240C4
S31520000EF00000555580B582B000AF0200FB1D1A7068
S31520000F004020FFF72BFF064AFB1D1B78537500F088
S31520000F104DFB4020FFF74CFFC046BD4602B080BDCA
S31520000F200010024080B582B000AF4020FFF716FFC8
S31520000F3000F06EFB064AFB1D527C1A704020FFF71C
S31520000F4037FFFB1D1B781800BD4602B080BDC0468A
S31520000F500010024080B582B000AF39601100FB1D41
S31520000F60021C1A703B1D0A1C1A80C046FFF79EFF02
S31520000F7003005BB2002BF9DB082000F052FBFB1DBF
S31520000F801B781800FFF744FF3B1D1B88012B04D15B
S31520000F903B68180000F045FB03E03B68180000F0B2
S31520000FA055FBC046BD4602B080BD80B582B000AFBD
S31520000FB00200FB1D1A700220FFF7D0FE0120FFF76A
S31520000FC0F7FEC046FFF772FF03005BB2002BF9DB8A
S31520000FD0082000F026FBFB1D1B781800FFF72DFFCD
S31520000FE02B2000F01EFBC046BD4602B080BD80B55A
S31520000FF084B000AF786039607B68002B25D07B6891
S31520001000142B22D83B68002B21D03B68022B1ED8FC
S315200010107B68DAB20F23FB18013A1A703B68022B61
S3152000102006D10F23FB180F22BA18127840321A70F5
S315200010300F23FB181B78802252421343DBB2012276
S3152000104027211800FFF786FF02E0C04600E0C046D1
S31520001050BD4604B080BD80B582B000AF786006E0A2
S315200010607B685A1C7A601B781800FFF79EFF7B6806
S315200010701B78002BF4D1C046BD4602B080BD90B58A
S3152000108089B000AF3B000F4A13CA13C313CA13C358
S31520001090116819609188998092799A7101210120AD
S315200010A0FFF7A5FF3B001800FFF7D5FF022101201F
S315200010B0FFF79DFF3B001800FFF7CDFFC046BD465A
S315200010C009B090BDF017002080B500AF154B154A2A
S315200010D012681204120C1A60124B124A1268AA21C4
S315200010E0C9050A431A600F4B0E4A5268FF210A406F
S315200010F05A600C4B0B4A52685A600A4B094AD2680E
S315200011001204120CDA60074B064AD268AA21090497
S315200011100A43DA60034B034A527DD2B25A75C0465F
S31520001120BD4680BD000C024080B582B000AFFB1DDD
S3152000113001221A7020E0FB1D1B78180000F02AF807
S3152000114000F054F80200BB1D1A70BB1D1B78002B43
S315200011500DD0002000F01EF8FB1D1B785A1EBB1D6B
S315200011601B78013B0A4992008A18D35C0CE0FB1DD0
S315200011701A78FB1D01321A70FB1D1B78042BDAD955
S31520001180002000F007F8FF231800BD4602B080BDFE
S315200011903017002080B582B000AF0200FB1D1A7008
S315200011A0FB1D1B78042B18D89A000E4BD3181B68EE
S315200011B09F460D4B00225A750FE00B4B10225A7595
S315200011C00BE0094B20225A7507E0074B40225A753F
S315200011D003E0054B80225A75C046C046BD4602B084
S315200011E080BDC04610180020000C024080B582B099
S315200011F000AF124AFB1D527C1A70FB1D1B78082279
S31520001200134001D0042315E0FB1D1B780422134054
S3152000121001D003230EE0FB1D1B780222134001D0D0
S31520001220022307E0FB1D1B780122134001D0012376
S3152000123000E000231800BD4602B080BD000C02402D
S3152000124080B584B000AFF860B9607A603B607B6897
S31520001250DAB2FB681A703B68DAB2FB685A70FB6830
S31520001260BA685A60C046BD4604B080BD80B58AB013
S3152000127000AFF860B9607A603B60FB681B78072294
S315200012801340DBB2002B05D1FB681B78DB08DBB2F1
S315200012907B6205E0FB681B78DB08DBB201337B62EF
S315200012A000233B6245E00023FB613BE0FB685B6873
S315200012B03A6A796A5143FA698A189A181723FB18E9
S315200012C012781A700023BB6126E01723FB181A78C0
S315200012D0BB691A411300012213401AD0FB69DBB205
S315200012E0DB00DAB2BB69DBB2D318DAB2BB68DBB299
S315200012F0D318DBB20133D8B23B6ADAB27B68DBB2F1
S31520001300D318DBB20133DBB23A68D2B21900FFF749
S315200013106EFBBB690133BB61BB69072BD5DDFB695E
S315200013200133FB61FA697B6A9A42BFDB3B6A013370
S315200013303B62FB685B781A003B6A9A42B3DCC04684
S31520001340BD460AB080BD80B582B000AF78607B68AC
S3152000135018687B68D9687B681A690123FFF786FFBE
S31520001360C046BD4602B080BD80B582B000AF786071
S315200013707B6818687B68D9687B681A690023FFF741
S3152000138075FFC046BD4602B080BD80B582B000AFB5
S3152000139078607B689B697A68100098477B68DA6872
S315200013A07B685B68D2187B68DA607B681A697B6821
S315200013B09B68D2187B681A617B68DB68002B05DA8C
S315200013C07B680022DA607B6800225A607B68DA68D4
S315200013D07B681B681B78D3187F2B07DD7B681B680F
S315200013E01B781A007F239A1A7B68DA607B681B6950
S315200013F0002B05DA7B6800221A617B6800229A603E
S315200014007B681A697B681B685B78D3183F2B07DDDE
S315200014107B681B685B781A003F239A1A7B681A61DF
S31520001420C046BD4602B080BD80B584B000AFF8602E
S31520001430B9607A60FB68BA685A60FB687A689A6015
S31520001440C046BD4604B080BD80B582B000AF78608E
S31520001450C046BD4602B080BD80B584B000AFF860FE
S31520001460B9607A60C046BD4604B080BD80B58CB0F8
S3152000147000AF2423FB1800221A702423FB18002215
S315200014805A702423FB1800225A602423FB18FB627F
S315200014901349F86A10231022FFF7D2FE3B00FA6A9E
S315200014A01A603B0000225A603B0000229A603B00F3
S315200014B0FA225200DA603B00FA2252001A613B00FF
S315200014C0084A5A613B00084A9A613B00074ADA619A
S315200014D03B00074A1A6200231800BD460CB080BDA7
S315200014E060170020471300206913002049140020AC
S315200014F05914002080B58CB000AF2423FB1800229D
S315200015001A702423FB1800225A702423FB18002269
S315200015105A602423FB18FB621349F86A1023102211
S31520001520FFF78EFE3B00FA6A1A603B0000225A60E3
S315200015303B0000229A603B00FA225200DA603B0010
S31520001540FA2252001A613B00084A5A613B00084AB7
S315200015509A613B00074ADA613B00074A1A62002378
S315200015601800BD460CB080BD801700204713002010
S3152000157069130020491400205914002080B582B038
S3152000158000AF78607B689B697A68100098477B6813
S31520001590DB697A68100098477B685B697A68100077
S315200015A09847C046BD4602B080BDC04680B500AF54
S315200015B0134B134A126813490A401A60124B124AF7
S315200015C01268120E12061A600F4B0F4A1268292152
S315200015D00A431A600D4B00221A60094B084A12680A
S315200015E005210A431A60C046054B1B68044B044A72
S315200015F0126804490A401A60C046BD4680BDC046EE
S3152000160010E000E0F8FFFEFF14E000E018E000E044
S3152000161080B500AFFFF7CAFFFFF7C8FFC046BD463B
S3152000162080BD80B584B000AF78600023FB6004E005
S31520001630FFF7EEFFFB680133FB607B685A00FB680F
S315200016409A42F5D8C046BD4604B080BD80B582B06A
S3152000165000AF78607B68FA22920053431800FFF7A8
S31520001660E0FFC046BD4602B080BDC0460000000077
S315200016700000000000000000000000000000000044
S315200016800000000000000000000000000000000034
S315200016903C3C43C29DB90FD0742E4A526A567A5E9C
S315200016A08421F81F300C0C1012241638C811781E0D
S315200016B0FFFF05A0FFFF15A82DB455AAA5A545A295
S315200016C045A2A5A555AA2DB415A8FFFF05A0FFFF85
S315200016D0FFFF8181BDBDA5A5A5A5A5A5A5A5A5A5F8
S315200016E0A5A5A5A5A5A5A5A5A5A5BDBD8181FFFFE8
S315200016F053706F6F707927730000000062697A61FA
S3152000170072726520616476656E747572650000007C
S31520001710436F6E67726174756C6174696F6E732145
S3152000172000000000596F752077696E2100000000C7
S315200017300102030A0405060B0708090C0E000F0D0B
S315200017403C3C43C29DB90FD0742E4A526A567A5EEB
S315200017508421F81F300C0C1012241638C811781E5C
S31520001760FFFF05A0FFFF15A82DB455AAA5A545A2E4
S3152000177045A2A5A555AA2DB415A8FFFF05A0FFFFD4
S31520001780FFFF8181BDBDA5A5A5A5A5A5A5A5A5A547
S31520001790A5A5A5A5A5A5A5A5A5A5BDBD8181FFFF37
S315200017A0010000000100000001000000030000000D
S315200017B003000000030000000500000005000000F3
S315200017C005000000060000000000000001000000E7
S315200017D002000000030000000200000001000000DB
S315200017E000000000010000000200000002000000CE
S315200017F020202020202020202020202020202020C3
S3152000180020202020202020202020202020200000F2
S31520001810B2110020BA110020C2110020CA110020E6
S30920001820D21100209B
S70520000000DA
