S01D00002E2F44656275672F67726170686963646973706C61792E73313990
S315200000000248854600F004F8FEE7C04600C00120FD
S3152000001080B500AF00F0FBF900F006FA00F035FAE3
S3152000002018214A2000F098F91821B92000F094F9F7
S315200000301821FF2000F0B3F9C046BD4680BD000060
S3152000004080B500AF134B134A126813490A401A6051
S31520000050124B124A1268120E12061A600F4B0F4AE2
S31520000060126829210A431A600D4B00221A60094B97
S31520000070084A126805210A431A60C046054B1B68C8
S31520000080044B044A126804490A401A60C046BD4619
S3152000009080BDC04610E000E0F8FFFEFF14E000E05F
S315200000A018E000E080B500AFFFF7CAFFFFF7C8FFF2
S315200000B0C046BD4680BD80B584B000AF78600023C1
S315200000C0FB6004E0FFF7EEFFFB680133FB607B6813
S315200000D05A00FB689A42F5D8C046BD4604B080BD9A
S315200000E080B582B000AF78607B68FA2292005343D5
S315200000F01800FFF7E0FFC046BD4602B080BDC046EF
S3152000010080B584B000AF0200FB1D1A700C4A0F2385
S31520000110FB18127D1A70FA1D0F23FB1812781B7814
S315200001201343DAB20F23FB1804210A431A70044A38
S315200001300F23FB181B781375C046BD4604B080BD3F
S315200001400010024080B584B000AF0200FB1D1A707B
S31520000150114A0F23FB18127D1A70FB1D1B785BB208
S31520000160DB435BB20F22BA18127852B213405AB24E
S315200001700F23FB181A700F23FB180F22BA181278B8
S3152000018004210A431A70044A0F23FB181B7813759F
S31520000190C046BD4604B080BD0010024080B582B086
S315200001A000AF0200FB1D1A70FB1D1B78082B0CD01C
S315200001B002DC002B05D01AE0102B0DD0182B12D004
S315200001C015E01820FFF7BEFF11E01020FFF7BAFF59
S315200001D00820FFF795FF0AE00820FFF7B3FF10205D
S315200001E0FFF78EFF03E01820FFF78AFFC046C046C0
S315200001F0BD4602B080BD80B500AF4020FFF7A2FF0C
S315200002000B4B0C4A1A600120FFF79CFF0220FFF7D8
S3152000021077FFFFF747FF4020FFF772FFFFF742FF08
S315200002204020FFF78FFFFFF73DFF014B5B7CF2E796
S31520000230001002405555000080B584B000AF020082
S31520000240FB1D1A704020FFF77DFF204B204A1A60C5
S315200002500120FFF755FF0220FFF752FFFB1D1B78F9
S315200002601800FFF79BFFFFF71DFF4020FFF748FF11
S31520000270FFF718FF154A0F23FB18527C1A704020EF
S31520000280FFF760FF114B134A1A60FB1D1B78102BDA
S3152000029007D0182B09D0082B0BD10820FFF77EFF9B
S315200002A00AE01020FFF77AFF06E01820FFF776FF16
S315200002B002E00020FFF772FFFFF79DFF0F23FB18D8
S315200002C01B781800BD4604B080BDC0460010024011
S315200002D0555500005555555580B582B000AF0200E2
S315200002E0FB1D1A70BB1D0A1C1A701A4AFB1D1B78AF
S315200002F05375BB1D1B781800FFF750FFFFF7D2FE82
S315200003004020FFF7FDFEFFF7CDFE4020FFF71AFF46
S31520000310BB1D1B780822134004D00820FFF73EFFA0
S31520000320FFF769FFBB1D1B781022134004D0102055
S31520000330FFF734FFFFF75FFF064B00225A75402078
S31520000340FFF7DEFE0020FFF729FFC046BD4602B0BC
S3152000035080BDC0460010024080B582B000AF0200CA
S31520000360FB1D1A70BB1D0A1C1A704020FFF7EAFEFF
S31520000370BB1D1B781800FFF711FF0120FFF7E2FED7
S315200003800220FFF7DFFEBB1D1A78FB1D1B7811002C
S315200003901800FFF7A1FFC046BD4602B080BD80B55C
S315200003A082B000AF0200FB1D1A70BB1D0A1C1A701A
S315200003B04020FFF7C7FEBB1D1B781800FFF7EEFE97
S315200003C00120FFF79DFE0220FFF7BCFEBB1D1A7819
S315200003D0FB1D1B7811001800FFF77EFFC046BD46A7
S315200003E002B080BD80B582B000AF0200FB1D1A703E
S315200003F0FB1D1B781800FFF71FFFFB1D1B7818003D
S31520000400FFF71AFF03001800BD4602B080BD80B575
S3152000041000AF034B034A1A60C046BD4680BDC046A6
S31520000420001002405555555580B500AF4020FFF7C6
S3152000043067FE0A20FFF73FFE0020FFF7AFFE2020D1
S31520000440FFF780FE4020FFF77DFE1E20FFF748FEC7
S315200004502020FFF755FE18213E20FFF77DFF1821AB
S31520000460FF20FFF779FF1821D020FFF775FF18210D
S315200004704020FFF771FF1821B820FFF76DFF0020FD
S31520000480FFF78CFEC046BD4680BD80B582B000AF6A
S31520000490FB1D00221A7023E0FB1D1B7848225242C6
S315200004A01343DBB218211800FFF756FF182140200E
S315200004B0FFF752FFBB1D00221A7008E0182100200A
S315200004C0FFF76DFFBB1D1A78BB1D01321A70BB1DCD
S315200004D01B783F2BF2D9FB1D1A78FB1D01321A70AF
S315200004E0FB1D1B78072BD7D9C046BD4602B080BD61
S70520000000DA
