S01D00002E2F44656275672F67726170686963646973706C61792E73313990
S315200000000248854600F004F8FEE7C04600C00120FD
S3152000001080B500AF00F0EAF900F0F8F91821542075
S3152000002000F08CF91821B92000F088F91821FF205A
S3152000003000F0A4F9C046BD4680BD000080B500AFE3
S31520000040134B134A126813490A401A60124B124A7C
S315200000501268120E12061A600F4B0F4A12682921D7
S315200000600A431A600D4B00221A60094B084A12688F
S3152000007005210A431A60C046054B1B68044B044AF7
S31520000080126804490A401A60C046BD4680BDC04673
S3152000009010E000E0F8FFFEFF14E000E018E000E0CA
S315200000A080B500AFFFF7CAFFFFF7C8FFC046BD46C1
S315200000B080BD80B584B000AF78600023FB6004E08B
S315200000C0FFF7EEFFFB680133FB607B685A00FB6895
S315200000D09A42F5D8C046BD4604B080BD80B582B0F0
S315200000E000AF78607B681800FFF7E3FFC046BD4687
S315200000F002B080BD80B584B000AF0200FB1D1A702F
S315200001000C4A0F23FB18127D1A70FA1D0F23FB18B9
S3152000011012781B781343DAB20F23FB1804210A4303
S315200001201A70044A0F23FB181B781375C046BD4668
S3152000013004B080BD0010024080B584B000AF02003C
S31520000140FB1D1A70114A0F23FB18127D1A70FB1D16
S315200001501B785BB2DB435BB20F22BA18127852B21D
S3152000016013405AB20F23FB181A700F23FB180F22C5
S31520000170BA18127804210A431A70044A0F23FB186E
S315200001801B781375C046BD4604B080BD00100240E2
S3152000019080B582B000AF0200FB1D1A70FB1D1B78D4
S315200001A0082B0CD002DC002B05D01AE0102B0DD02A
S315200001B0182B12D015E01820FFF7BEFF11E01020F3
S315200001C0FFF7BAFF0820FFF795FF0AE00820FFF7A0
S315200001D0B3FF1020FFF78EFF03E01820FFF78AFFFA
S315200001E0C046C046BD4602B080BD80B582B000AFD5
S315200001F04020FFF7A1FF144B144A1A600120FFF795
S315200002009BFF0220FFF776FFFFF74AFF4020FFF70C
S3152000021071FFFFF745FF4020FFF78EFFFFF740FFF6
S31520000220094B5B7CDAB2FB1D7F218A431A70FB1DCA
S315200002301B78002B00D0E9E7C046034B044A1A601E
S31520000240C046BD4602B080BD001002405555000094
S315200002505555555580B584B000AF0200FB1D1A7068
S315200002604020FFF769FF124B124A1A600320FFF75E
S3152000027041FFFB1D1B781800FFF78AFFFFF710FFD1
S315200002804020FFF737FFFFF70BFF094A0F23FB1824
S31520000290527C1A704020FFF74FFF054B064A1A6022
S315200002A00F23FB181B781800BD4604B080BDC0463E
S315200002B000100240555500005555555580B582B061
S315200002C000AF0200FB1D1A70BB1D0A1C1A701A4AC9
S315200002D0FB1D1B785375BB1D1B781800FFF758FFB5
S315200002E0FFF7DEFE4020FFF705FFFFF7D9FE40208F
S315200002F0FFF722FFBB1D1B780822134004D00820DD
S31520000300FFF746FFFFF771FFBB1D1B781022134036
S3152000031004D01020FFF73CFFFFF767FF064B0022B3
S315200003205A754020FFF7E6FE0020FFF731FFC04652
S31520000330BD4602B080BDC0460010024080B582B0E6
S3152000034000AF0200FB1D1A70BB1D0A1C1A7040204C
S31520000350FFF7F2FEBB1D1B781800FFF719FF0320DD
S31520000360FFF7EAFEBB1D1A78FB1D1B78110018004B
S31520000370FFF7A4FFC046BD4602B080BD80B582B05F
S3152000038000AF0200FB1D1A70BB1D0A1C1A7040200C
S31520000390FFF7D2FEBB1D1B781800FFF7F9FE0120E0
S315200003A0FFF7A8FE0220FFF7C7FEBB1D1A78FB1D2C
S315200003B01B7811001800FFF781FFC046BD4602B02A
S315200003C080BD80B582B000AF0200FB1D1A70FB1DF8
S315200003D01B781800FFF73EFFFB1D1B781800FFF760
S315200003E039FF03001800BD4602B080BD80B500AFBE
S315200003F0044B054A1A60034B034A9A60C046BD4621
S3152000040080BDC046001002405555555580B500AFF9
S315200004104020FFF76FFE0A20FFF74BFE7820FFF7FC
S315200004208BFE1E20FFF75AFE2020FFF763FE642076
S31520000430FFF754FE18213E20FFF780FF18213F20AA
S31520000440FFF77CFF1821C020FFF778FF18214020F6
S31520000450FFF774FF1821B820FFF770FF0020FFF781
S3152000046097FEC046BD4680BD80B582B000AFFB1D5D
S3152000047000221A7023E0FB1D1B78482252421343A8
S31520000480DBB218211800FFF759FF18214020FFF78B
S3152000049055FFBB1D00221A7008E018210020FFF727
S315200004A06DFFBB1D1A78BB1D01321A70BB1D1B7850
S315200004B03F2BF2D9FB1D1A78FB1D01321A70FB1D4A
S315200004C01B78072BD7D9C046BD4602B080BDC04693
S70520000000DA
