S01D00002E2F44656275672F67726170686963646973706C61792E73313990
S315200000000248854600F004F8FEE7C04600C00120FD
S3152000001080B500AFC046BD4680BD000080B500AFAC
S31520000020134B134A126813490A401A60124B124A9C
S315200000301268120E12061A600F4B0F4A12682921F7
S315200000400A431A600D4B00221A60094B084A1268AF
S3152000005005210A431A60C046054B1B68044B044A17
S31520000060126804490A401A60C046BD4680BDC04693
S3152000007010E000E0F8FFFEFF14E000E018E000E0EA
S3152000008080B500AFFFF7CAFFFFF7C8FFC046BD46E1
S3152000009080BD80B584B000AF78600023FB6004E0AB
S315200000A0FFF7EEFFFB680133FB607B685A00FB68B5
S315200000B09A42F5D8C046BD4604B080BD80B582B010
S315200000C000AF78607B68FA22920053431800FFF74E
S315200000D0E0FFC046BD4602B080BDC04680B584B0B4
S315200000E000AF0200FB1D1A700C4A0F23FB18127D6D
S315200000F01A70FA1D0F23FB1812781B781343DAB2F5
S315200001000F23FB1804210A431A70044A0F23FB18F5
S315200001101B781375C046BD4604B080BD0010024052
S3152000012080B584B000AF0200FB1D1A70114A0F2360
S31520000130FB18127D1A70FB1D1B785BB2DB435BB28A
S315200001400F22BA18127852B213405AB20F23FB1854
S315200001501A700F23FB180F22BA18127804210A43AB
S315200001601A70044A0F23FB181B781375C046BD4628
S3152000017004B080BD0010024080B582B000AF0200FE
S31520000180FB1D1A70FB1D1B78082B0CD002DC002BE4
S3152000019005D01AE0102B0DD0182B12D015E0182000
S315200001A0FFF7BEFF11E01020FFF7BAFF0820FFF788
S315200001B095FF0AE00820FFF7B3FF1020FFF78EFF18
S315200001C003E01820FFF78AFFC046C046BD4602B0AE
S315200001D080BD80B500AF4020FFF7A2FF114B124A29
S315200001E01A600120FFF79CFF0220FFF777FFFFF739
S315200001F047FF4020FFF772FFFFF742FF4020FFF73F
S315200002008FFF084B5B7CDBB25BB2002B00DBF0E799
S31520000210C0464020FFF762FF024B044A1A60C046E0
S31520000220BD4680BD00100240555500005555555518
S3152000023080B582B000AF0200FB1D1A70C0461800C0
S30D20000240BD4602B080BDC04698
S70520000000DA
