S02B00002E2F44656275672F696E74657272757074696F6E735F616E645F657863657074696F6E732E7331397D
S315200000000248854600F004F8FEE7C04600C00120FD
S3152000001080B500AF00F00AF8024A034B1B78DBB22A
S315200000201375F9E7000C02402402002080B500AFCA
S315200000301D4B1D4A1268120C12041A601B4B1B4AD8
S315200000401268120C12041A60184B184A12681849C2
S315200000500A431A60174A174B5B7ADBB20F210B4013
S31520000060DBB25372134A134B5B7ADBB240210B434C
S31520000070DBB25372104B104A126808210A431A60E9
S315200000800D4B0D4AD26808210A43DA600B4B0C4A05
S315200000901A600C4B0B4A1268802189000A431A60A9
S315200000A0C046BD4680BDC04600100240000C02403E
S315200000B05555000000380140003C014064C0012035
S315200000C0C900002000E100E080B582B000AF786072
S315200000D00A4B5B69012213400CD0094B1B78DBB21B
S315200000E00133DAB2064B1A70044B044A52690821CE
S315200000F00A435A61C046BD4602B080BD003C01405D
S315200001002402002080B500AF00F003F8C046BD46AB
S3152000011080BD80B500AF034B034A1A60C046BD467A
S3152000012080BDC04618C001202D01002080B582B0B8
S3152000013000AF7860FEE7C04680B500AF00F048F813
S31520000140C046BD4680BD80B500AF044B00221A6074
S315200001502A2000F025F8C046BD4680BD2C0200208E
S3152000016080B500AFA82000F01BF8C046BD4680BD74
S3152000017080B582B000AF78607B68002B08D07A68A3
S31520000180054B1A60054B00221A60FFF7E9FF00E0D5
S31520000190C046BD4602B080BD280200202C020020A9
S315200001A080B582B000AF7860084B00221A60074BFA
S315200001B07A68013A5A60054B00229A60034B07225F
S315200001C01A70C046BD4602B080BDC04610E000E0B1
S315200001D080B500AF024B034A1A60C046BD4680BDBB
S315200001E03CC00120E901002080B500AF0A4B002267
S315200001F01A600A4B1B685A1E084B1A60074B1B686D
S31520000200002B02DDFFF7ACFF02E0054B01221A604E
S31520000210C046BD4680BDC04610E000E02802002052
S315200002202C02002000000000000000000100000059
S70520000000DA
