S01D00002E2F44656275672F67726170686963646973706C61792E73313990
S315200000000248854600F004F8FEE7C04600C00120FD
S3152000001090B599B000AF00F0BFFC00F0D5FA00F023
S31520000020D3FC2423FB18180034231A00002100F0E7
S315200000307FFD2423FB180C221A602423FB1804229C
S315200000405A602423FB1804229A602423FB180122D9
S315200000505A732423FB180222DA732423FB18012265
S315200000601A742423FB1801229A742423FB180122D4
S31520000070DA742423FB1801221A752423FB18022282
S315200000805A752423FB1801229A752423FB18032270
S31520000090DA752423FB1802221A762423FB1802225F
S315200000A09A762423FB180122DA762423FB180222CF
S315200000B01A772423FB1802225A772423FB180222BC
S315200000C09A772423FB180322DA772423FB1820228D
S315200000D0032199542423FB182122012199542423F6
S315200000E0FB182222032199542423FB1823220221C0
S315200000F099543B002422BA181A603B0000225A6009
S315200001003B0000229A603B000122DA603B0001227C
S315200001101A613B002A4A5A613B002A4A9A613B00EF
S31520000120294ADA613B00294A1A623B00FB65FB6DCE
S315200001301B6AF86D012204219847FB6DDB69FA6D75
S315200001401000984718213F2000F0E6F91821C0201A
S3152000015000F0E2F95B23FC1800F05EFC030023703C
S315200001605B23FB181B78042B0FD002DC022B14D048
S3152000017022E0062B02D0082B17D01DE0FB6D1B6A50
S31520000180F86D00220221984716E0FB6D1B6A0222B9
S315200001905142F86D002298470EE0FB6D1B6A022241
S315200001A05242F86D0021984706E0FB6D1B6AF86DF8
S315200001B0022200219847C046282000F059F8BCE7C3
S315200001C03108002095080020F90800207909002030
S315200001D080B500AF134B134A126813490A401A60C0
S315200001E0124B124A1268120E12061A600F4B0F4A51
S315200001F0126829210A431A600D4B00221A60094B06
S31520000200084A126805210A431A60C046054B1B6836
S31520000210044B044A126804490A401A60C046BD4687
S3152000022080BDC04610E000E0F8FFFEFF14E000E0CD
S3152000023018E000E080B500AFFFF7CAFFFFF7C8FF60
S31520000240C046BD4680BD80B584B000AF786000232F
S31520000250FB6004E0FFF7EEFFFB680133FB607B6881
S315200002605A00FB689A42F5D8C046BD4604B080BD08
S3152000027080B582B000AF78607B68FA229200534343
S315200002801800FFF7E0FFC046BD4602B080BDC0465D
S3152000029080B584B000AF0200FB1D1A700F4A0F23F1
S315200002A0FB18127D1A700F23FB180F22B918FA1D9E
S315200002B0097812780A431A700F23FB180F22BA18EE
S315200002C0127804218A431A70044A0F23FB181B78DC
S315200002D01375C046BD4604B080BDC046001002401E
S315200002E080B584B000AF0200FB1D1A70114A0F239F
S315200002F0FB18127D1A70FB1D1B785BB2DB435BB2C9
S315200003000F22BA18127852B213405AB20F23FB1892
S315200003101A700F23FB180F22BA18127804218A4369
S315200003201A70044A0F23FB181B781375C046BD4666
S3152000033004B080BD0010024080B582B000AF02003C
S31520000340FB1D1A70FB1D1B78082B0CD002DC002B22
S3152000035005D01AE0102B0DD0182B12D015E018203E
S31520000360FFF7BEFF11E01020FFF7BAFF0820FFF7C6
S315200003708FFF0AE00820FFF7B3FF1020FFF788FF62
S3152000038003E01820FFF784FFC046C046BD4602B0F2
S3152000039080BD80B582B000AF4020FFF7A1FF174B8C
S315200003A0174A1A600120FFF79BFF0220FFF770FF14
S315200003B0FFF740FF4020FFF76BFFFFF73BFF0F4A99
S315200003C0FB1D527C1A704020FFF78AFFFFF732FF91
S315200003D0FB1DFA1D12787F218A431A70FB1D1B789C
S315200003E0002B00D0E6E7C0464020FFF751FF034B25
S315200003F0044A1A60C046BD4602B080BD00100240C5
S31520000400555500005555555580B584B000AF0200AE
S31520000410FB1D1A704020FFF763FF1C4B1C4A1A6015
S315200004200320FFF735FFFB1D1B781800FFF784FF1D
S31520000430FFF700FF4020FFF72BFFFFF7FBFE134AD5
S315200004400F23FB18527C1A704020FFF749FF0F4BF1
S31520000450104A1A60FB1D1B780822134004D008207E
S31520000460FFF76AFFFFF795FFFB1D1B78102213404D
S3152000047004D01020FFF760FFFFF78BFF0F23FB1838
S315200004801B781800BD4604B080BDC046001002404F
S31520000490555500005555555580B582B000AF020020
S315200004A0FB1D1A70BB1D0A1C1A701A4AFB1D1B78ED
S315200004B05375BB1D1B781800FFF73EFFFFF7BAFEEA
S315200004C04020FFF7E5FEFFF7B5FE4020FFF708FFC7
S315200004D0BB1D1B780822134004D00820FFF72CFFF1
S315200004E0FFF757FFBB1D1B781022134004D01020A6
S315200004F0FFF722FFFFF74DFF064B00225A754020DB
S31520000500FFF7C6FE0020FFF717FFC046BD4602B024
S3152000051080BDC0460010024080B582B000AF020008
S31520000520FB1D1A70BB1D0A1C1A704020FFF7D8FE4F
S31520000530BB1D1B781800FFF7FFFE0320FFF7D0FE38
S31520000540BB1D1A78FB1D1B7811001800FFF7A4FFAE
S31520000550C046BD4602B080BD80B582B000AF020065
S31520000560FB1D1A70BB1D0A1C1A704020FFF7B8FE2F
S31520000570BB1D1B781800FFF7DFFE0120FFF788FE62
S315200005800220FFF7ADFEBB1D1A78FB1D1B7811005C
S315200005901800FFF781FFC046BD4602B080BD80B57A
S315200005A082B000AF0200FB1D1A70FB1D1B781800DD
S315200005B0FFF72AFFFB1D1B781800FFF725FF030016
S315200005C01800BD4602B080BD80B500AF4020FFF7C1
S315200005D05FFE0A20FFF737FE7820FFF781FE1E20F8
S315200005E0FFF746FE2020FFF753FE6420FFF740FE6C
S315200005F018213E20FFF790FF18213F20FFF78CFFA0
S315200006001821C020FFF788FF18214020FFF784FF1C
S315200006101821B820FFF780FF0020FFF78DFEC04687
S31520000620BD4680BD80B582B000AFFB1D00221A708A
S3152000063023E0FB1D1B78482252421343DBB21821CC
S315200006401800FFF769FF18214020FFF765FFBB1D43
S3152000065000221A7008E018210020FFF77DFFBB1D3D
S315200006601A78BB1D01321A70BB1D1B783F2BF2D99D
S31520000670FB1D1A78FB1D01321A70FB1D1B78072BF8
S31520000680D7D9C046BD4602B080BD90B585B000AF73
S31520000690040008001100FB1D221C1A70BB1D021C41
S315200006A01A707B1D0A1C1A70FB1D1B78002B00D1AB
S315200006B0B4E0FB1D1B78802B00D9AFE0BB1D1B7857
S315200006C0002B00D1ACE0BB1D1B78402B00D9A7E046
S315200006D07B1D1B78012B04D07B1D1B78002B00D0A3
S315200006E0A0E0BB1D1B78013B002B00DA0733DB1093
S315200006F01A000C23FB181A700F23FB1801221A70FC
S315200007000F23FB181A78BB1D1B78013B47490B406A
S3152000071004D5013B082149420B4301339A400F235C
S31520000720FB181A707B1D1B78002B06D10F23FB1894
S315200007300F22BA181278D2431A70FB1D1B78402B51
S315200007400AD90D23FB1810221A700E23FB18FA1D46
S315200007501278413A1A7009E00D23FB1808221A7004
S315200007600E23FB18FA1D1278013A1A700E23FB1875
S315200007701B7840221343DAB20D23FB181B7819008D
S315200007801000FFF7C9FE0C23FB181B7848225242A3
S315200007901343DAB20D23FB181B7819001000FFF75C
S315200007A0BBFE0B23FC180D23FB181B781800FFF744
S315200007B0F6FE030023700E23FB181B7840221343FA
S315200007C0DAB20D23FB181B7819001000FFF7A4FEE0
S315200007D07B1D1B78012B0AD10F23FB180F22B9187A
S315200007E00B22BA18097812780A431A7009E00F23E7
S315200007F0FB180F22BA180B217918127809780A40AB
S315200008001A700D23FB181A780F23FB181B7811007A
S315200008101800FFF7A1FEFFF70DFD04E0C04602E039
S31520000820C04600E0C046BD4605B090BD070000802A
S3152000083080B584B000AF78600023FB6020E07B6841
S315200008401A68FB6804335B00D31804331A787B6874
S31520000850DB68DBB2D318D8B27B681A68FB6804332E
S315200008605B00D31805331A787B681B69DBB2D31873
S31520000870DBB201221900FFF708FFFB680133FB609A
S315200008807B681B681A68FB689A42D8DCC046BD465E
S3152000089004B080BD80B584B000AF78600023FB60D3
S315200008A020E07B681A68FB6804335B00D3180433A6
S315200008B01A787B68DB68DBB2D318D8B27B681A68F3
S315200008C0FB6804335B00D31805331A787B681B69F1
S315200008D0DBB2D318DBB200221900FFF7D6FEFB6885
S315200008E00133FB607B681B681A68FB689A42D8DC78
S315200008F0C046BD4604B080BD80B582B000AF7860EA
S315200009007B681800FFF7C6FF7B68DA687B685B6840
S31520000910D2187B68DA607B681A697B689B68D21874
S315200009207B681A617B68DB68002B07DD7B68DA68E9
S315200009307B681B685B68D318802B04DD7B685B684B
S315200009405A427B685A607B681B69002B07DD7B68EF
S315200009501A697B681B689B68D318402B04DD7B686B
S315200009609B685A427B689A607B681800FFF760FF95
S31520000970C046BD4602B080BD80B584B000AFF860E9
S31520000980B9607A60FB68BA685A60FB687A689A60D0
S31520000990C046BD4604B080BD80B500AF064B1822C8
S315200009A01A6008488047054B054A1A60034B044ADB
S315200009B09A60C046BD4680BD3038024000100240D5
S315200009C0555555550902000880B500AF104B114A00
S315200009D01A600F4B0E4A5268FF210A405A600C4B90
S315200009E00B4A52685A600A4B094AD2681204120C02
S315200009F0DA60074B064AD268AA2109040A43DA605C
S31520000A00034B034A527DD2B25A75C046BD4680BDBD
S31520000A10000C02405555005580B582B000AFFB1D35
S31520000A2001221A7020E0FB1D1B78180000F02AF81E
S31520000A3000F054F80200BB1D1A70BB1D1B78002B5A
S31520000A400DD0002000F01EF8FB1D1B785A1EBB1D82
S31520000A501B78013B0A4992008A18D35C0CE0FB1DE7
S31520000A601A78FB1D01321A70FB1D1B78042BDAD96C
S31520000A70002000F007F8FF231800BD4602B080BD15
S31520000A80500B002080B582B000AF0200FB1D1A700B
S31520000A90FB1D1B78042B18D89A000E4BD3181B6805
S31520000AA09F460D4B00225A750FE00B4B10225A75AC
S31520000AB00BE0094B20225A7507E0074B40225A7556
S31520000AC003E0054B80225A75C046C046BD4602B09B
S31520000AD080BDC046600B0020000C024080B582B06D
S31520000AE000AF124AFB1D527C1A70FB1D1B78082290
S31520000AF0134001D0042315E0FB1D1B78042213406C
S31520000B0001D003230EE0FB1D1B780222134001D0E7
S31520000B10022307E0FB1D1B780122134001D001238D
S31520000B2000E000231800BD4602B080BD000C024044
S31520000B3003008218934200D1704719700133F9E7F8
S31520000B400102030A0405060B0708090C0E000F0D07
S31520000B500102030A0405060B0708090C0E000F0DF7
S31520000B60A20A0020AA0A0020B20A0020BA0A0020FF
S30920000B70C20A00206F
S70520000000DA
