S01B00002E2F44656275672F6173636969646973706C61792E73313967
S315200000000248854600F004F8FEE7C04600C00120FD
S3152000001090B58BB000AF1423FB18154A13CA13C32F
S3152000002012881A803B1D134A13CA13C311881980DC
S3152000003092789A7000F020F80121012000F0B1F9A1
S315200000401423FB187B627B6A1B78180000F0DDF90D
S315200000500221012000F0A5F93B1D7B627B6A1B78FB
S31520000060180000F0D2F9C046BD460BB090BDC04680
S31520000070340400204404002080B500AF0F4B104A02
S315200000801A6000220221012000F036F90022022106
S31520000090022000F031F901222721382000F02CF926
S315200000A0012227210E2000F027F9012227210720EF
S315200000B000F022F9C046BD4680BDC0460010024071
S315200000C05555555580B500AF134B134A1268134941
S315200000D00A401A60124B124A1268120E12061A6051
S315200000E00F4B0F4A126829210A431A600D4B002232
S315200000F01A60094B084A126805210A431A60C0464D
S31520000100054B1B68044B044A126804490A401A60CE
S31520000110C046BD4680BDC04610E000E0F8FFFEFFA9
S3152000012014E000E018E000E080B584B000AF78600D
S315200001300023FB6004E0FFF7C5FFFB680133FB608B
S315200001407B689A00FB689A42F5D8C046BD4604B043
S3152000015080BD80B582B000AF78607B681800FFF75D
S31520000160E3FFC046BD4602B080BD80B582B000AF79
S315200001700200FB1D1A700649054B1A78FB1D1B78D9
S315200001801343DBB20B70C046BD4602B080BDC046ED
S315200001901410024080B582B000AF0200FB1D1A7019
S315200001A00549054B1B78FA1D12781340DBB20B70FC
S315200001B0C046BD4602B080BD1410024080B582B054
S315200001C000AF0200FB1D1A700320FFF7E3FFFB1DA3
S315200001D01B78180000F05EF8C046BD4602B080BD10
S315200001E080B582B000AF0200FB1D1A700120FFF718
S315200001F0BCFF0220FFF7CEFFFB1D1B78180000F086
S3152000020049F8C046BD4602B080BD90B583B000AF68
S315200002100C4B0C4A12681204120C1A600320FFF7CA
S31520000220A4FFFC1D00F04EF803002370054B054A81
S31520000230126805490A431A60FB1D1B781800BD4643
S3152000024003B090BD001002400000555590B583B014
S3152000025000AF0E4B0D4A12681204120C1A600120D0
S31520000260FFF798FF0220FFF780FFFC1D00F02AF819
S3152000027003002370054B054A126805490A431A6094
S31520000280FB1D1B781800BD4603B090BD0010024030
S315200002900000555580B582B000AF0200FB1D1A70D4
S315200002A04020FFF762FF064AFB1D1B781370FFF7FD
S315200002B009FF4020FFF76EFFC046BD4602B080BD55
S315200002C01510024080B582B000AF4020FFF74DFFE9
S315200002D0FFF7F8FEFFF7F6FE064AFB1D12781A70A6
S315200002E04020FFF757FFFB1D1B781800BD4602B0C4
S315200002F080BDC0461110024080B582B000AF396083
S315200003001100FB1D021C1A703B1D0A1C1A800220BC
S31520000310FFF72BFF0120FFF73DFFC046FFF796FFB3
S3152000032003001A0001231340F8D10820FFF7FCFE32
S31520000330FB1D1B781800FFF741FF3B1D1B88012B77
S3152000034004D13B681800FFF7EFFE03E03B68180076
S31520000350FFF7FFFEC046BD4602B080BD80B582B025
S3152000036000AF0200FB1D1A700220FFF7FEFE0120DF
S31520000370FFF710FFC046FFF769FF03001A000123AD
S315200003801340F8D10820FFF7CFFEFB1D1B7818007D
S31520000390FFF726FF2B20FFF7C7FEC046BD4602B05B
S315200003A080BD80B584B000AF786039607B68002B53
S315200003B025D07B68142B22D83B68002B21D03B68A4
S315200003C0022B1ED87B68DAB20F23FB18013A1A706B
S315200003D03B68022B06D10F23FB180F22BA1812787E
S315200003E040321A700F23FB181B7880225242134387
S315200003F0DBB2012227211800FFF77EFF02E0C0466C
S3152000040000E0C046BD4604B080BD80B582B000AFD6
S31520000410786006E07B685A1C7A601B781800FFF724
S315200004209DFF7B681B78002BF4D1C046BD4602B0E9
S3152000043080BDC046416C66616E756D657269736B71
S3152000044020000000446973706C6179202D2074654A
S30920000450737400009B
S70520000000DA
