S01500002E2F44656275672F6B65797061642E733139EE
S315200000000248854600F0DEF8FEE7C04600C0012023
S3152000001080B500AF124B134A1A60134A124B1B8845
S315200000209BB2FF210B409BB213800F4B0E4A1288C6
S3152000003092B21A800D4B0D4A12681204120C1A60E5
S315200000400A4B0A4A1268AA2109040A431A60084B75
S31520000050074A1278D2B21A70C046BD4680BDC04645
S31520000060000C024055550055040C02400C0C024071
S31520000070150C024080B582B000AFFB1D01221A701C
S3152000008020E0FB1D1B78180000F02AF800F054F839
S315200000900200BB1D1A70BB1D1B78002B0DD0002043
S315200000A000F01EF8FB1D1B785A1EBB1D1B78013B5A
S315200000B00A4992008A18D35C0CE0FB1D1A78FB1DB6
S315200000C001321A70FB1D1B78042BDAD9002000F0B0
S315200000D007F8FF231800BD4602B080BDDC010020D2
S315200000E080B582B000AF0200FB1D1A70FB1D1B7885
S315200000F0042B18D89A000E4BD3181B689F460D4B1D
S3152000010000221A700FE00B4B10221A700BE0094BDD
S3152000011020221A7007E0074B40221A7003E0054B95
S3152000012080221A70C046C046BD4602B080BDC04679
S315200001300C020020150C024080B582B000AF124A96
S31520000140FB1D12781A70FB1D1B780822134001D064
S31520000150042315E0FB1D1B780422134001D0032342
S315200001600EE0FB1D1B780222134001D0022307E07C
S31520000170FB1D1B780122134001D0012300E0002340
S315200001801800BD4602B080BD110C024080B582B079
S3152000019000AF0200FB1D1A70FB1D1B780F2B03D925
S315200001A0064B00221A7005E00449FB1D1B78044A01
S315200001B0D35C0B70C046BD4602B080BD140C024015
S315200001C0EC01002080B500AFFFF722FFFFF752FFBA
S315200001D003001800FFF7DAFFF8E7C0460102030A1A
S315200001E00405060B0708090C0E000F0D3F065B4F92
S315200001F0666D7D077F6F777C585E8076065B4F77CE
S31520000200666D7D7C077F6F58803F765EFE000020FE
S31520000210060100200E010020160100201E010020EC
S70520000000DA
