S01D00002E2F44656275672F67726170686963646973706C61792E73313990
S315200000000248854600F00BF8FEE7C04600C00120F6
S3152000001080B500AF00F097FDC046BD4680BD80B5D7
S3152000002082B000AFFFF7F4FF00F017FCFB1D0022A3
S315200000301A700BE0FB1D1B7801220A21180000F024
S3152000004091FDFB1D1A78FB1D01321A70FB1D1B78D2
S315200000505BB2002BEEDAFB1D00221A700BE0FB1DB3
S315200000601B78012219000A2000F07CFDFB1D1A785E
S31520000070FB1D01321A70FB1D1B783F2BEFD91E206A
S3152000008000F079F8FB1D00221A700BE0FB1D1B788F
S3152000009000220A21180000F065FDFB1D1A78FB1DC1
S315200000A001321A70FB1D1B785BB2002BEEDAFB1DAA
S315200000B000221A700BE0FB1D1B78002219000A2073
S315200000C000F050FDFB1D1A78FB1D01321A70FB1D36
S315200000D01B783F2BEFD9C046BD4602B080BD00003D
S315200000E080B500AF0C4B00221A600B4B0B4A5A60AE
S315200000F0094B00229A60084B05221A60C046064B1F
S315200001001A6880235B021340F9D1034B00221A6040
S31520000110C046BD4680BDC04610E000E010A40000E9
S3152000012080B500AFFFF7DCFFFFF7DAFFC046BD461C
S3152000013080BD80B584B000AF78607A68FA239900D4
S31520000140100000F08DFE03007B607B6801337B602E
S315200001507B689B00BB600023FB6004E0FFF7C0FFC9
S31520000160FB680133FB60FA68BB689A42F6D3C04647
S31520000170BD4604B080BD80B584B000AF78607A6893
S31520000180FA239900100000F06BFE03007B607B6869
S3152000019001337B607B68FA2212015343BB60002344
S315200001A0FB6004E0FFF79CFFFB680133FB60FA6805
S315200001B0BB689A42F6D3C046BD4604B080BDC04651
S315200001C080B582B000AF78607B681B681B041A0C70
S315200001D07B681A607B681B68114A1A437B681A6021
S315200001E07B689B88FF2213409AB27B689A807B6843
S315200001F09B88F022120113439AB27B689A807B680F
S31520000200DB681B041A0C7B68DA607B68DB68AA2231
S3152000021012041A437B68DA60C046BD4602B080BD30
S31520000220FFFF005580B582B000AF78607B681B6801
S315200002301B0C1A047B681A607B681B68114A1A43D8
S315200002407B681A607B689B88FF2293439AB27B68FF
S315200002509A807B689B88FF2213439AB27B689A8098
S315200002607B68DB68FF2293431A007B68DA607B6831
S31520000270DB68AA221A437B68DA60C046BD4602B014
S3152000028080BDC0465555000090B587B000AF3B1DD8
S315200002901F4A13CA13C312681A601723FB180022B9
S315200002A01A702AE01B4B180000F086F81723FB185B
S315200002B01B78184A1900100000F056F81623FC186F
S315200002C0144B180000F083F8030023701623FB1844
S315200002D01B78FF2B0AD01723FB181B789A001623AE
S315200002E0FB181B78D3183A1DD35C0CE01723FB1898
S315200002F01A781723FB1801321A701723FB181B785C
S31520000300032BCFD9FF231800BD4607B090BDC046AA
S31520000310D00F0020000C024090B58BB000AF786063
S315200003200A00FB1C1A700823FB180E4A13CA13C3B3
S3152000033013CA13C303CA03C3FB1C1B780F2B03D991
S315200003407B6800221A7508E0FB1C1A780823FB1824
S315200003505200D35ADAB27B681A75C046BD460BB036
S3152000036090BDC046E00F002080B582B000AF786017
S315200003700A00FB1C1A70FB1C1B78012B0CD002DC1C
S31520000380002B05D014E0022B0AD0032B0CD00FE053
S315200003907B6810225A750BE07B6820225A7507E08D
S315200003A07B6840225A7503E07B6880225A75C046D6
S315200003B0C046BD4602B080BD80B582B000AF786031
S315200003C07B6800225A75C046BD4602B080BD80B506
S315200003D082B000AF78607B685B7C1A0001231340F3
S315200003E001D0002318E07B685B7C1A0002231340AF
S315200003F001D0012310E07B685B7C1A0004231340A4
S3152000040001D0022308E07B685B7C1A000823134096
S3152000041001D0032300E0FF231800BD4602B080BDB3
S3152000042080B500AF054B064A1A60044B044A9A6011
S3152000043000F008F8C046BD4680BDC0460010024008
S315200004405555555580B500AFC04600F0BDF80300A0
S315200004501A0080231340802BF7D01420FFF769FE63
S31520000460382000F087F82720FFF763FEC04600F00B
S31520000470ABF803001A0080231340802BF7D01420FA
S31520000480FFF757FE0E2000F075F82720FFF751FEE4
S31520000490C04600F099F803001A0080231340802BF1
S315200004A0F7D01420FFF745FE012000F063F827203F
S315200004B0FFF73FFEC04600F087F803001A008023AE
S315200004C01340802BF7D01420FFF733FE042000F0D2
S315200004D051F82720FFF72DFEC046BD4680BD80B5CA
S315200004E084B000AF0200FB1D1A700D4A0F23FB18C3
S315200004F0127D1A70FA1D0F23FB1812781B781343EE
S31520000500DAB20F23FB1804210A431A70044A0F2378
S31520000510FB181B781375C046BD4604B080BDC04687
S315200005200010024080B584B000AF0200FB1D1A7097
S315200005300F4A0F23FB18127D1A70FB1D1B785BB226
S31520000540DB435BB20F22BA18127852B213405BB269
S31520000550042213435AB20F23FB181A70044A0F239E
S31520000560FB181B781375C046BD4604B080BDC04637
S315200005700010024080B582B000AF0200FB1D1A7049
S315200005800120FFF7CFFF0220FFF7CCFFFB1D1B78D2
S31520000590180000F061F8C046BD4602B080BD80B5A7
S315200005A082B000AF0200FB1D1A700120FFF797FFF3
S315200005B00220FFF7B7FFFB1D1B78180000F04CF850
S315200005C0C046BD4602B080BD90B583B000AF0E4B8D
S315200005D00D4A12681204120C1A600120FFF7A2FFBE
S315200005E00220FFF77CFFFC1D00F04EF8030023706D
S315200005F0054B054A126805490A431A60FB1D1B78FC
S315200006001800BD4603B090BD0010024000005555AD
S3152000061090B583B000AF0E4B0D4A12681204120C2F
S315200006201A600120FFF75BFF0220FFF758FFFC1D31
S3152000063000F02AF803002370054B054A1268054985
S315200006400A431A60FB1D1B781800BD4603B090BDF7
S31520000650001002400000FFFF80B582B000AF02000C
S31520000660FB1D1A704020FFF73AFF064AFB1D1B7838
S315200006705375FFF735FD4020FFF754FFC046BD46B2
S3152000068002B080BD0010024080B582B000AF40208D
S31520000690FFF725FFFFF724FDFFF722FD064AFB1D86
S315200006A0527C1A704020FFF73DFFFB1D1B78180077
S315200006B0BD4602B080BDC0460010024080B584B061
S315200006C000AF786039603B68012B02D03B68022B73
S315200006D01AD17B68DAB20F23FB18013A1A703B68ED
S315200006E0022B06D10F23FB180F22BA18127840329C
S315200006F01A700F23FB181B78802252421343DBB259
S315200007001800FFF737FF00E0C046BD4604B080BDA5
S3152000071080B582B000AF0200FB1D1A70C046FFF7FD
S3152000072053FF03001A0080231340802BF7D00820A4
S31520000730FFF7FFFCFB1D1B781800FFF730FF2B206F
S31520000740FFF7F7FCC046BD4602B080BD80B584B039
S3152000075000AF0200FB1D1A70124A0F23FB18127DF0
S315200007601A700F23FB180F22BA18127804218A4315
S315200007701A70FB1D1B785BB2042293435AB20F23D7
S31520000780FB181B785BB213435AB20F23FB181A705F
S31520000790044A0F23FB181B781375C046BD4604B0C8
S315200007A080BDC0460010024080B584B000AF020074
S315200007B0FB1D1A70114A0F23FB18127D1A700F2386
S315200007C0FB180F22BA18127804218A431A70FB1DCF
S315200007D01B785BB2DB435BB20F22BA18127852B297
S315200007E013405AB20F23FB181A70044A0F23FB1822
S315200007F01B781375C046BD4604B080BD001002406C
S3152000080080B582B000AF0200FB1D1A70FB1D1B785D
S31520000810082B0CD002DC002B05D01AE0102B0DD0B3
S31520000820182B12D015E01820FFF7BEFF11E0082084
S31520000830FFF78CFF1020FFF7B7FF0AE01020FFF725
S3152000084085FF0820FFF7B0FF03E01820FFF77EFFA3
S31520000850C046C046BD4602B080BD80B500AF402030
S31520000860FFF774FF0A20FFF764FC7820FFF79CFF50
S315200008701E20FFF75EFC2020FFF768FF6420FFF7AD
S3152000088058FC18213E2000F0D3F818213F2000F014
S31520000890CFF81821C02000F0CBF81821402000F016
S315200008A0C7F81821B82000F0C3F80020FFF7A8FFEA
S315200008B0C046BD4680BD80B582B000AF4020FFF760
S315200008C073FF144B144A1A600120FFF76DFF0220B4
S315200008D0FFF73CFFFFF724FC4020FFF737FFFFF729
S315200008E01FFC0C4B5B7CDAB2FB1D7F218A431A70FE
S315200008F04020FFF759FFFFF713FCFB1D1B78002B49
S3152000090000D0E9E7C046034B044A1A60C046BD46FC
S3152000091002B080BD00100240555500005555555572
S3152000092080B584B000AF0200FB1D1A704020FFF78F
S315200009303BFF1C4B1C4A1A600220FFF707FF0120D1
S31520000940FFF704FFFB1D1B781800FFF759FFFFF781
S31520000950E7FB4020FFF7FAFEFFF7E2FB114A0F23E1
S31520000960FB18527C1A704020FFF71EFF0D4B0F4AD2
S315200009701A60FB1D1B78082B04D10820FFF740FFC7
S31520000980FFF799FFFB1D1B78102B04D11020FFF7D2
S3152000099037FFFFF790FF0F23FB181B781800BD4683
S315200009A004B080BD001002405555000055555555E0
S315200009B080B582B000AF0200FB1D1A70BB1D0A1C59
S315200009C01A701A4AFB1D1B785375BB1D1B7818001D
S315200009D0FFF716FFFFF7A4FB4020FFF7B7FEFFF750
S315200009E09FFB4020FFF7E0FEBB1D1B78082213402B
S315200009F004D00820FFF704FFFFF75DFFBB1D1B781F
S31520000A001022134004D01020FFF7FAFEFFF753FF01
S31520000A10064B00225A754020FFF798FE0020FFF76C
S31520000A20EFFEC046BD4602B080BDC0460010024063
S31520000A3080B582B000AF0200FB1D1A70BB1D0A1CD8
S31520000A401A704020FFF7B0FEBB1D1B781800FFF779
S31520000A50D7FE0320FFF7A8FEBB1D1A78FB1D1B78C7
S31520000A6011001800FFF7A4FFC046BD4602B080BDA6
S31520000A7080B582B000AF0200FB1D1A70BB1D0A1C98
S31520000A801A704020FFF790FEBB1D1B781800FFF759
S31520000A90B7FE0120FFF75AFE0220FFF785FEBB1D99
S31520000AA01A78FB1D1B7811001800FFF781FFC0463E
S31520000AB0BD4602B080BD80B582B000AF0200FB1DEE
S31520000AC01A70FB1D1B781800FFF72AFFFB1D1B78E9
S31520000AD01800FFF725FF03001800BD4602B080BDB1
S31520000AE080B582B000AFFB1D00221A7023E0FB1DEB
S31520000AF01B78482252421343DBB218211800FFF715
S31520000B0097FF18214020FFF793FFBB1D00221A7084
S31520000B1008E018210020FFF7ABFFBB1D1A78BB1D8C
S31520000B2001321A70BB1D1B783F2BF2D9FB1D1A7898
S31520000B30FB1D01321A70FB1D1B78072BD7D9C04627
S31520000B40BD4602B080BD80B500AF044B044A1A6092
S31520000B50024B034A9A60C046BD4680BD0010024043
S31520000B605555555590B585B000AF040008001100C5
S31520000B70FB1D221C1A70BB1D021C1A707B1D0A1C31
S31520000B801A70FB1D1B78802B00D9AAE0FB1D1B7851
S31520000B90002B00D1A5E0BB1D1B78402B00D9A0E07F
S31520000BA0BB1D1B78002B00D19BE07B1D1B78002BE7
S31520000BB004D07B1D1B78012B00D094E0BB1D1B7835
S31520000BC0013B002B00DA0733DB101A000D23FB183C
S31520000BD01A70BB1D1B78013B454A134004D5013BC7
S31520000BE008225242134301331A00012393401A006C
S31520000BF00F23FB181A707B1D1B78002B06D10F23A1
S31520000C00FB180F22BA181278D2431A70FB1D1B78D4
S31520000C10402B09D90E23FB1810221A70FB1DFA1D32
S31520000C201278413A1A7008E00E23FB1808221A702F
S31520000C30FB1DFA1D1278013A1A70FB1D1B78402203
S31520000C401343DAB20E23FB181B7819001000FFF7A6
S31520000C50EFFE0D23FB181B78482252421343DAB2CB
S31520000C600E23FB181B7819001000FFF7E1FE0C235A
S31520000C70FC180E23FB181B781800FFF71CFF030037
S31520000C802370FB1D1B7840221343DAB20E23FB1878
S31520000C901B7819001000FFF7CBFE7B1D1B78012B5C
S31520000CA00AD10F23FB180F22B9180C22BA1809787B
S31520000CB012780A431A7009E00F23FB180F22BA187C
S31520000CC00C217918127809780A401A700E23FB181D
S31520000CD01A780F23FB181B7811001800FFF7C8FE9F
S31520000CE002E0C04600E0C046BD4605B090BDC04605
S31520000CF00700008080B584B000AFF860B9607A60E4
S31520000D00FB68BA685A60FB687A689A60C046BD4636
S31520000D1004B080BD80B584B000AF78600023FB604E
S31520000D201CE07B68DA687B681968FB6804335B0023
S31520000D30CB1804331B78D0187B681A697B6819682E
S31520000D40FB6804335B00CB1805331B78D3180122CC
S31520000D501900FFF707FFFB680133FB607B681B6800
S31520000D601A68FB689A42DCDCC046BD4604B080BDEA
S31520000D7080B584B000AF78600023FB601CE07B6800
S31520000D80DA687B681968FB6804335B00CB18043388
S31520000D901B78D0187B681A697B681968FB6804334E
S31520000DA05B00CB1805331B78D31800221900FFF7F8
S31520000DB0D9FEFB680133FB607B681B681A68FB68F9
S31520000DC09A42DCDCC046BD4604B080BD80B584B006
S31520000DD000AF78607B681800FFF7CAFF7B68DB6886
S31520000DE0D9B27B685B68DAB20F23FB188A181A70AF
S31520000DF07B681B69D9B27B689B68DAB20E23FB1825
S31520000E008A181A700F23FB181B78002B08D00F2383
S31520000E10FB181A787B681B685B68D318802B04DD67
S31520000E207B685B685A427B685A600E23FB181B78E6
S31520000E30002B08D00E23FB181A787B681B689B684A
S31520000E40D318402B04DD7B689B685A427B689A60E6
S31520000E507B681800FFF75EFFC046BD4604B080BD24
S31520000E60002243088B4274D303098B425FD3030AC3
S31520000E708B4244D3030B8B4228D3030C8B420DD3D6
S31520000E80FF22090212BA030C8B4202D31212090264
S31520000E9065D0030B8B4219D300E0090AC30B8B42A2
S31520000EA001D3CB03C01A5241830B8B4201D38B0350
S31520000EB0C01A5241430B8B4201D34B03C01A5241F5
S31520000EC0030B8B4201D30B03C01A5241C30A8B4238
S31520000ED001D3CB02C01A5241830A8B4201D38B0223
S31520000EE0C01A5241430A8B4201D34B02C01A5241C7
S31520000EF0030A8B4201D30B02C01A5241CDD2C30939
S31520000F008B4201D3CB01C01A524183098B4201D3B4
S31520000F108B01C01A524143098B4201D34B01C01A9F
S31520000F20524103098B4201D30B01C01A5241C30817
S31520000F308B4201D3CB00C01A524183088B4201D386
S31520000F408B00C01A524143088B4201D34B00C01A72
S31520000F505241411A00D20146524110467047FFE7DE
S31520000F6001B5002000F006F802BDC0460029F7D0E2
S31520000F7076E770477047C0460C000000040000006A
S31520000F80040000000001000201000200020003002C
S31520000F900200020102020203030103020000000014
S31520000FA0000000000000000000000000780F002074
S31520000FB00000000000000000010000000100000009
S31520000FC0150D0020710D0020CD0D0020F50C002000
S31520000FD00102030A0405060B0708090C0E000F0D73
S31520000FE03F0006005B004F0066006D007D00070095
S31520000FF07F006F0077007C0058005E00800076003E
S70520000000DA
