S01B00002E2F44656275672F666C6970666C6F705F6972712E7331395F
S315200000000248854600F004F8FEE7C04600C00120FD
S3152000001080B500AF00F00AF8024A034B1B68DBB23A
S315200000201375F9E7000C0240FC00002080B500AFF4
S315200000301B4B1C4A1A601C4BA82252011A601B4AF1
S315200000401A4B1B889BB21B051B0D9BB213801749AD
S31520000050164B1B889BB28022D20113439BB20B8086
S31520000060134B134A126808210A431A60114B114A8E
S31520000070126808210A431A600F4B0F4A126808219A
S315200000808A431A600D4B0E4A1A600E4B0D4A1268AF
S31520000090802189000A431A60C046BD4680BDC046FD
S315200000A0000C0240555555550010024008380140B5
S315200000B0003C01400C3C0140083C014064C001204A
S315200000C0C900002000E100E080B500AF094B1B68A5
S315200000D0082213400AD0084B1B685A1C064B1A608C
S315200000E0044B044A126808210A431A60C046BD46DA
S315200000F080BDC046143C0140FC00002000000000EA
S70520000000DA
