S01800002E2F44656275672F64656C61795F355F332E73313934
S315200000000248854600F004F8FEE7C04600C00120FD
S3152000001080B500AF00F050F80D4A0D4B1B889BB2FF
S31520000020FF218B439BB21380FA235B00180000F05C
S315200000306DF8074A064B1B889BB2FF210B439BB2E8
S315200000401380FA235B00180000F060F8E4E7C0464E
S31520000050140C024080B500AF134B134A12681349A3
S315200000600A401A60124B124A1268120E12061A60C1
S315200000700F4B0F4A12682A210A431A600D4B0022A1
S315200000801A60094B084A126805210A431A60C046BD
S31520000090054B1B68044B044A126804490A401A603F
S315200000A0C046BD4680BDC04610E000E0F8FFFEFF1A
S315200000B014E000E018E000E080B500AF074B074AE7
S315200000C01268120C12041A60044B044A126804497E
S315200000D00A431A60C046BD4680BDC046000C024099
S315200000E05555000080B584B000AF78600023FB60D2
S315200000F004E0FFF7AFFFFB680133FB60FA687B681B
S315200001009A42F6D3C046BD4604B080BD80B582B0C3
S3152000011000AF78607B681800FFF7E4FFC046BD4655
S3092000012002B080BDC6
S70520000000DA
