S02800002E2F44656275672F73706F6F7079735F62697A617272655F616476656E747572652E733139C1
S315200000000248854600F004F8FEE7C04600C00120FD
S3152000001080B5A4B000AF00F0F5F901F001FA0300B5
S315200000208422BA18136001F083FA03008022BA18DA
S31520000030136000238C22BA1813600FE001F034FA03
S3152000004001003B008C22BA1812689200D1508C23F2
S31520000050FB181B6801338C22BA1813608C23FB18FB
S315200000601B681F2BEADD3A008023FB1819688423BE
S31520000070FB181B68180000F02DF98423FB181B6859
S315200000805B698422BA181268100098478023FB18EF
S315200000901B685B698022BA181268100098470023F3
S315200000A08822BA18136015E03B008822BA18126815
S315200000B09200D3585B693A0088217918096889002B
S315200000C08A58100098478823FB181B68013388221A
S315200000D0BA1813608823FB181B681F2BE4DD012147
S315200000E0012000F082FF414B180000F0B2FF0221F0
S315200000F0012000F07AFF3E4B180000F0AAFF3D4B8E
S315200001001B78042B13D002DC022B1CD032E0062BEA
S3152000011002D0082B23D02DE08423FB181B681B6AF2
S315200001208422BA1810680022012198472DE08423E2
S31520000130FB181B681B6A012251428422BA181068D8
S315200001400022984721E08423FB181B681B6A0122A2
S3152000015052428421791808680021984715E08423A3
S31520000160FB181B681B6A8422BA181068012200211A
S3152000017098470AE08423FB181B681B6A8422BA1856
S315200001801068002200219847C0468423FB181B686C
S31520000190180000F05DF88423FB181B68180001F096
S315200001A00BFA18213F2000F073FB1821C02000F025
S315200001B06FFBFA2000F0C0F90F4B1B78002B00D103
S315200001C09DE7C0460121012000F00FFF0B4B1800D0
S315200001D000F03FFF0221012000F007FF084B180026
S315200001E000F037FFC046BD4624B080BD74160020FF
S315200001F080160020E8150020E9150020941600201E
S31520000200A816002080B500AF0E4B5A69F0231B01BB
S31520000210134013D000F062FF0300DAB20A4B1A70C3
S315200002200A4BF0225A75074B5A69F0231B011A40D4
S315200002301100044B034A52690A435A61C046BD461F
S3152000024080BDC046003C0140E8150020000C02405D
S3152000025090B587B000AF78607B68DB68002B00DA4A
S315200002600F331B117B617B681B69002B00DA0F3370
S315200002701B113B617B685A687B69D2187B68996839
S315200002803B69CB18114992008A18D35CFB60FB6846
S31520000290022B08D0032B09D17B681B6A78680022C1
S315200002A0002198470EE00A4B01221A707B681C6ACF
S315200002B07B685B6819017B689B681A017B6818005C
S315200002C0A047C046C046BD4607B090BDF4150020E5
S315200002D0E915002090B5A1B000AFF860B9607A604A
S315200002E00023FB6713E00023BB670AE0424AFB6F4B
S315200002F09B00D218BB6FD31800221A70BB6F013334
S31520000300BB67BB6F032BF1DDFB6F0133FB67FB6F15
S31520000310072BE8DD00233B670023FB66364A3B6F4D
S315200003209B00D218FB6ED31801221A703B6F1A015C
S31520000330FB68DA60FB6E1A01FB681A610723BB664D
S3152000034003237B662C4ABB6E9B00D2187B6ED31888
S3152000035002221A70BB6E1A01BB68DA607B6E1A0124
S31520000360BB681A613C23FB18244A13CA13C313CA59
S3152000037013C313CA13C312681A601423FB18204A26
S3152000038013CA13C313CA13C313CA13C312681A603A
S3152000039000237B6729E03C23FB187A6F9200D25812
S315200003A01423FB18796F8900CB58134992008A18B9
S315200003B00321D1547B6F9B007A68D3181B683C229B
S315200003C0BA18796F89008A581201DA607B6F9B0010
S315200003D07A68D3181B681422BA18796F89008A584C
S315200003E012011A617B6F01337B677B6F272BD2D972
S315200003F0C046BD4621B090BDF41500202817002028
S315200004005017002080B500AF00F092FC00F080FC71
S3152000041000F03EF800F032FE154B164A1A61164BD4
S31520000420F02212051A60144B134AD268F0210905EE
S315200004300A43DA60104B104A9268F02109050A43F4
S315200004409A600E4B0E4A1A600E4B0D4A1A600E4BDE
S315200004500D4A1268802109040A431A600B4B0B4A85
S315200004601268802149000A431A60C046BD4680BDF5
S315200004700038014033330000003C01409CC001207D
S3152000048005020020E0C0012000E100E004E100E0D8
S3152000049080B500AF00F086F8C046BD4680BD80B569
S315200004A000AF044B00221A602A2000F063F8C046F1
S315200004B0BD4680BDB416002080B500AF044B002297
S315200004C01A60542000F056F8C046BD4680BDC0468E
S315200004D0B416002080B500AFA82000F04BF8C04627
S315200004E0BD4680BD80B500AF034B180000F042F832
S315200004F0C046BD4680BDC0464090020080B582B051
S3152000050000AF78607B68002B0BD07A68074B1A60A7
S31520000510074B00221A60074B01221A60FFF7DAFF09
S3152000052000E0C046BD4602B080BDC046EC150020A6
S31520000530B4160020F015002080B582B000AF786098
S315200005407B68002B0BD07A68074B1A60074B00227A
S315200005501A60074B00221A60FFF7C4FF00E0C0466E
S31520000560BD4602B080BDC046EC150020B416002062
S31520000570F015002080B582B000AF7860084B0022CD
S315200005801A60074B7A68013A5A60054B00229A6036
S31520000590034B07221A70C046BD4602B080BDC04636
S315200005A010E000E080B500AF024B034A1A60C04657
S315200005B0BD4680BD3CC00120BD05002080B500AFF2
S315200005C00D4B00221A600D4B1B685A1E0B4B1A60EE
S315200005D00A4B1B68002B09DD094B1B68002B02D038
S315200005E0FFF778FF05E0FFF77DFF02E0054B0122CC
S315200005F01A60C046BD4680BD10E000E0EC15002024
S31520000600F0150020B416002080B584B000AF02009B
S31520000610FB1D1A700F4A0F23FB18127D1A700F2329
S31520000620FB180F22B918FA1D097812780A431A7096
S315200006300F23FB180F22BA18127804218A431A7046
S31520000640044A0F23FB181B781375C046BD4604B019
S3152000065080BDC0460010024080B584B000AF0200C5
S31520000660FB1D1A70114A0F23FB18127D1A70FB1DF1
S315200006701B785BB2DB435BB20F22BA18127852B2F8
S3152000068013405AB20F23FB181A700F23FB180F22A0
S31520000690BA18127804218A431A70044A0F23FB18C9
S315200006A01B781375C046BD4604B080BD00100240BD
S315200006B080B582B000AF0200FB1D1A70FB1D1B78AF
S315200006C0082B0CD002DC002B05D01AE0102B0DD005
S315200006D0182B12D015E01820FFF7BEFF11E01020CE
S315200006E0FFF7BAFF0820FFF78FFF0AE00820FFF781
S315200006F0B3FF1020FFF788FF03E01820FFF784FFE1
S31520000700C046C046BD4602B080BD80B582B000AFAF
S315200007104020FFF7A1FF174B174A1A600120FFF769
S315200007209BFF0220FFF770FFFFF7C6FE4020FFF772
S315200007306BFFFFF7C1FE0F4AFB1D527C1A7040204B
S31520000740FFF78AFFFFF7B8FEFB1DFA1D12787F21FF
S315200007508A431A70FB1D1B78002B00D0E6E7C046A3
S315200007604020FFF751FF034B044A1A60C046BD469E
S3152000077002B080BD00100240555500005555555514
S3152000078080B584B000AF0200FB1D1A704020FFF731
S3152000079063FF1C4B1C4A1A600320FFF735FFFB1D25
S315200007A01B781800FFF784FFFFF786FE4020FFF72F
S315200007B02BFFFFF781FE134A0F23FB18527C1A707A
S315200007C04020FFF749FF0F4B104A1A60FB1D1B788C
S315200007D00822134004D00820FFF76AFFFFF795FF91
S315200007E0FB1D1B781022134004D01020FFF760FF5A
S315200007F0FFF78BFF0F23FB181B781800BD4604B0AC
S3152000080080BDC0460010024055550000555555552F
S3152000081080B582B000AF0200FB1D1A70BB1D0A1CFA
S315200008201A701A4AFB1D1B785375BB1D1B781800BE
S31520000830FFF73EFFFFF740FE4020FFF7E5FEFFF7FC
S315200008403BFE4020FFF708FFBB1D1B780822134004
S3152000085004D00820FFF72CFFFFF757FFBB1D1B789E
S315200008601022134004D01020FFF722FFFFF74DFF80
S31520000870064B00225A754020FFF7C6FE0020FFF7E0
S3152000088017FFC046BD4602B080BDC04600100240DC
S3152000089080B582B000AF0200FB1D1A70BB1D0A1C7A
S315200008A01A704020FFF7D8FEBB1D1B781800FFF7F3
S315200008B0FFFE0320FFF7D0FEBB1D1A78FB1D1B7819
S315200008C011001800FFF7A4FFC046BD4602B080BD48
S315200008D080B582B000AF0200FB1D1A70BB1D0A1C3A
S315200008E01A704020FFF7B8FEBB1D1B781800FFF7D3
S315200008F0DFFE0120FFF788FE0220FFF7ADFEBB1DBD
S315200009001A78FB1D1B7811001800FFF781FFC046DF
S31520000910BD4602B080BD80B582B000AF0200FB1D8F
S315200009201A70FB1D1B781800FFF72AFFFB1D1B788A
S315200009301800FFF725FF03001800BD4602B080BD52
S3152000094080B500AF4020FFF75FFE0A20FFF7D6FDF7
S315200009507820FFF781FE1E20FFF7EEFD2020FFF70F
S3152000096053FE6420FFF7E8FD18213E20FFF790FF95
S3152000097018213F20FFF78CFF1821C020FFF788FFA2
S3152000098018214020FFF784FF1821B820FFF780FFA9
S315200009900020FFF78DFEC046BD4680BD80B582B0E3
S315200009A000AFFB1D00221A7023E0FB1D1B78482296
S315200009B052421343DBB218211800FFF769FF1821B2
S315200009C04020FFF765FFBB1D00221A7008E01821A2
S315200009D00020FFF77DFFBB1D1A78BB1D01321A7060
S315200009E0BB1D1B783F2BF2D9FB1D1A78FB1D01324C
S315200009F01A70FB1D1B78072BD7D9C046BD4602B0FF
S31520000A0080BD90B585B000AF040008001100FB1D25
S31520000A10221C1A70BB1D021C1A707B1D0A1C1A7020
S31520000A20FB1D1B78002B00D1B4E0FB1D1B78802B0F
S31520000A3000D9AFE0BB1D1B78002B00D1ACE0BB1D5D
S31520000A401B78402B00D9A7E07B1D1B78012B04D0F7
S31520000A507B1D1B78002B00D0A0E0BB1D1B78013B23
S31520000A60002B00DA0733DB101A000C23FB181A7050
S31520000A700F23FB1801221A700F23FB181A78BB1DAF
S31520000A801B78013B47490B4004D5013B08214942CD
S31520000A900B4301339A400F23FB181A707B1D1B78DA
S31520000AA0002B06D10F23FB180F22BA181278D24337
S31520000AB01A70FB1D1B78402B0AD90D23FB18102218
S31520000AC01A700E23FB18FA1D1278413A1A7009E0A3
S31520000AD00D23FB1808221A700E23FB18FA1D127814
S31520000AE0013A1A700E23FB181B7840221343DAB200
S31520000AF00D23FB181B7819001000FFF7C9FE0C23E5
S31520000B00FB181B78482252421343DAB20D23FB18F6
S31520000B101B7819001000FFF7BBFE0B23FC180D23D2
S31520000B20FB181B781800FFF7F6FE030023700E2330
S31520000B30FB181B7840221343DAB20D23FB181B78CF
S31520000B4019001000FFF7A4FE7B1D1B78012B0AD18C
S31520000B500F23FB180F22B9180B22BA18097812781E
S31520000B600A431A7009E00F23FB180F22BA180B212B
S31520000B707918127809780A401A700D23FB181A780A
S31520000B800F23FB181B7811001800FFF7A1FEFFF7B3
S31520000B9093FC04E0C04602E0C04600E0C046BD46E5
S31520000BA005B090BD0700008080B584B000AF7860A6
S31520000BB00023FB6020E07B681A68FB6804335B0037
S31520000BC0D31804331A787B68DB68DBB2D318D8B223
S31520000BD07B681A68FB6804335B00D31805331A78E0
S31520000BE07B681B69DBB2D318DBB201221900FFF741
S31520000BF008FFFB680133FB607B681B681A68FB688B
S31520000C009A42D8DCC046BD4604B080BD80B584B0CB
S31520000C1000AF78600023FB6020E07B681A68FB68E1
S31520000C2004335B00D31804331A787B68DB68DBB2A5
S31520000C30D318D8B27B681A68FB6804335B00D318D4
S31520000C4005331A787B681B69DBB2D318DBB2002226
S31520000C501900FFF7D6FEFB680133FB607B681B6833
S31520000C601A68FB689A42D8DCC046BD4604B080BDEF
S31520000C7080B582B000AF78607B681800FFF7C6FFAA
S31520000C807B68DA687B685B68D2187B68DA607B6889
S31520000C901A697B689B68D2187B681A617B68DB6857
S31520000CA0002B07DD7B68DA687B681B685B68D318D6
S31520000CB0802B04DD7B685B685A427B685A607B68C0
S31520000CC01B69002B07DD7B681A697B681B689B689C
S31520000CD0D318402B04DD7B689B685A427B689A6058
S31520000CE07B681800FFF760FFC046BD4602B080BD96
S31520000CF080B584B000AFF860B9607A60FB68BA68E6
S31520000D005A60FB687A689A60C046BD4604B080BDCA
S31520000D1080B500AF044B054A1A60034B034A9A601C
S31520000D20C046BD4680BDC0460010024055555555AB
S31520000D3080B500AF0E4B0F4A1A60402000F03EF8F7
S31520000D4001222721382000F003F9012227210E2035
S31520000D5000F0FEF800220221012000F0F9F801221D
S31520000D602721062000F0F4F8C046BD4680BDC046C7
S31520000D70001002405555555580B584B000AF02008D
S31520000D80FB1D1A700C4A0F23FB18127D1A700F23B5
S31520000D90FB180F22B918FA1D097812780A431A701F
S31520000DA0054A0F23FB181B7804210B43DBB213756E
S31520000DB0C046BD4604B080BD0010024080B584B058
S31520000DC000AF0200FB1D1A700F4A0F23FB18127D7D
S31520000DD01A70FB1D1B785BB2DB435BB20F22BA187D
S31520000DE0127852B213405AB20F23FB181A70064AD1
S31520000DF00F23FB181B7804210B43DBB21375C04667
S31520000E00BD4604B080BDC0460010024080B582B009
S31520000E1000AF0200FB1D1A700120FFF7CFFF022052
S31520000E20FFF7CCFFFB1D1B78180000F061F8C046C9
S31520000E30BD4602B080BD80B582B000AF0200FB1D6A
S31520000E401A700120FFF798FF0220FFF7B7FFFB1D5E
S31520000E501B78180000F04CF8C046BD4602B080BD95
S31520000E6090B583B000AF0E4B0D4A12681204120CD7
S31520000E701A600220FFF780FF0120FFF77DFFFC1D8F
S31520000E8000F04EF803002370054B054A1268054909
S31520000E900A431A60FB1D1B781800BD4603B090BD9F
S31520000EA0001002400000555590B583B000AF0E4BA0
S31520000EB00D4A12681204120C1A600120FFF77EFFF9
S31520000EC00220FFF759FFFC1D00F02AF803002370CB
S31520000ED0054B054A126805490A431A60FB1D1B7813
S31520000EE01800BD4603B090BD0010024000005555C5
S31520000EF080B582B000AF0200FB1D1A704020FFF7BC
S31520000F003BFF064AFB1D1B785375FFF7C8FA4020A6
S31520000F10FFF754FFC046BD4602B080BD0010024018
S31520000F2080B582B000AF4020FFF726FFFFF7C4FA56
S31520000F30064AFB1D527C1A704020FFF73FFFFB1D1F
S31520000F401B781800BD4602B080BDC0460010024086
S31520000F5080B582B000AF39601100FB1D021C1A70EB
S31520000F603B1D0A1C1A80C046FFF79EFF03005BB29A
S31520000F70002BF9DB0820FFF7C1FAFB1D1B781800B0
S31520000F80FFF744FF3B1D1B88012B04D13B6818004B
S31520000F90FFF7B4FA03E03B681800FFF7CDFAC04626
S31520000FA0BD4602B080BD80B582B000AF0200FB1DF9
S31520000FB01A700220FFF7E0FE0120FFF7FFFEC04671
S31520000FC0FFF772FF03005BB2002BF9DB0820FFF767
S31520000FD095FAFB1D1B781800FFF72DFF2B20FFF736
S31520000FE08DFAC046BD4602B080BD80B584B000AF44
S31520000FF0786039607B68002B25D07B68142B22D83B
S315200010003B68002B21D03B68022B1ED87B68DAB2C6
S315200010100F23FB18013A1A703B68022B06D10F23C7
S31520001020FB180F22BA18127840321A700F23FB18B9
S315200010301B78802252421343DBB20122272118005B
S31520001040FFF786FF02E0C04600E0C046BD4604B07A
S3152000105080BD80B582B000AF786006E07B685A1C00
S315200010607A601B781800FFF79EFF7B681B78002BA1
S31520001070F4D1C046BD4602B080BDC04680B500AFA3
S31520001080154B154A12681204120C1A60124B124A9A
S315200010901268AA21C9050A431A600F4B0E4A5268E4
S315200010A0FF210A405A600C4B0B4A52685A600A4B81
S315200010B0094AD2681204120CDA60074B064AD26833
S315200010C0AA2109040A43DA60034B034A527DD2B2AD
S315200010D05A75C046BD4680BD000C024080B582B020
S315200010E000AFFB1D01221A7020E0FB1D1B781800A3
S315200010F000F02AF800F054F80200BB1D1A70BB1D40
S315200011001B78002B0DD0002000F01EF8FB1D1B784D
S315200011105A1EBB1D1B78013B0A4992008A18D35CD4
S315200011200CE0FB1D1A78FB1D01321A70FB1D1B7883
S31520001130042BDAD9002000F007F8FF231800BD465B
S3152000114002B080BDB816002080B582B000AF020084
S31520001150FB1D1A70FB1D1B78042B18D89A000E4B0A
S31520001160D3181B689F460D4B00225A750FE00B4B78
S3152000117010225A750BE0094B20225A7507E0074BBF
S3152000118040225A7503E0054B80225A75C046C04658
S31520001190BD4602B080BDC04678170020000C024034
S315200011A080B582B000AF124AFB1D527C1A70FB1D1F
S315200011B01B780822134001D0042315E0FB1D1B7861
S315200011C00422134001D003230EE0FB1D1B780222CC
S315200011D0134001D0022307E0FB1D1B780122134098
S315200011E001D0012300E000231800BD4602B080BDD7
S315200011F0000C024080B584B000AFF860B9607A6018
S315200012003B607B68DAB2FB681A703B68DAB2FB682F
S315200012105A70FB68BA685A60C046BD4604B080BDA5
S3152000122080B58AB000AFF860B9607A603B60FB6831
S315200012301B7807221340DBB2002B05D1FB681B78F5
S31520001240DB08DBB27B6205E0FB681B78DB08DBB2E0
S3152000125001337B6200233B6245E00023FB613BE0D8
S31520001260FB685B683A6A796A5143FA698A189A1860
S315200012701723FB1812781A700023BB6126E0172368
S31520001280FB181A78BB691A411300012213401AD0A1
S31520001290FB69DBB2DB00DAB2BB69DBB2D318DAB2A8
S315200012A0BB68DBB2D318DBB20133D8B23B6ADAB201
S315200012B07B68DBB2D318DBB20133DBB23A68D2B239
S315200012C01900FFF79EFBBB690133BB61BB69072B86
S315200012D0D5DDFB690133FB61FA697B6A9A42BFDB84
S315200012E03B6A01333B62FB685B781A003B6A9A4291
S315200012F0B3DCC046BD460AB080BD80B582B000AF23
S3152000130078607B6818687B68D9687B681A690123CE
S31520001310FFF786FFC046BD4602B080BD80B582B0CD
S3152000132000AF78607B6818687B68D9687B681A6923
S315200013300023FFF775FFC046BD4602B080BD80B5CD
S3152000134082B000AF78607B689B697A681000984706
S315200013507B68DA687B685B68D2187B68DA607B68B2
S315200013601A697B689B68D2187B681A617B68DB6880
S31520001370002B05DA7B680022DA607B6800225A603F
S315200013807B68DA687B681B681B78D3187F2B07DDA0
S315200013907B681B681B781A007F239A1A7B68DA60A1
S315200013A07B681B69002B05DA7B6800221A617B6843
S315200013B000229A607B681A697B681B685B78D31861
S315200013C03F2B07DD7B681B685B781A003F239A1A40
S315200013D07B681A61C046BD4602B080BD80B584B028
S315200013E000AFF860B9607A60FB68BA685A60FB683B
S315200013F07A689A60C046BD4604B080BD80B582B08A
S3152000140000AF7860C046BD4602B080BD80B584B0CE
S3152000141000AFF860B9607A60C046BD4604B080BDB2
S3152000142080B58CB000AF2423FB1800221A70242329
S31520001430FB1800225A702423FB1800225A6024230A
S31520001440FB18FB621349F86A10231022FFF7D2FE1D
S315200014503B00FA6A1A603B0000225A603B000022D9
S315200014609A603B00FA225200DA603B00FA225200D0
S315200014701A613B00084A5A613B00084A9A613B00C0
S31520001480074ADA613B00074A1A6200231800BD4664
S315200014900CB080BDC8160020FB1200201D130020B2
S315200014A03F130020DD13002080B58CB000AF24232D
S315200014B0FB1800221A702423FB1800225A702423BA
S315200014C0FB1800225A602423FB18FB621349F86A92
S315200014D010231022FFF78EFE3B00FA6A1A603B00AB
S315200014E000225A603B0000229A603B00FA225200FA
S315200014F0DA603B00FA2252001A613B00084A5A6120
S315200015003B00084A9A613B00074ADA613B00074ADA
S315200015101A6200231800BD460CB080BDE8160020D4
S31520001520FB1200201D130020FD1300200D140020A7
S3152000153080B58CB000AF2423FB1800221A70242318
S31520001540FB1800225A702423FB1800225A602423F9
S31520001550FB18FB621349F86A10231022FFF74AFE94
S315200015603B00FA6A1A603B0000225A603B000022C8
S315200015709A603B00FA225200DA603B00FA225200BF
S315200015801A613B00084A5A613B00084A9A613B00AF
S31520001590074ADA613B00074A1A6200231800BD4653
S315200015A00CB080BD08170020FB1200201D13002060
S315200015B0FD1300200D14002080B582B000AF7860A6
S315200015C07B689B697A68100098477B68DB697A6834
S315200015D0100098477B685B697A6810009847C04678
S315200015E0BD4602B080BDC0460000000000000000DD
S315200015F000000000000000000000000000000000C5
S3152000160000000000000000000000000000000000B4
S31520001610000000003C3C43C29DB90FD0742E4A52B4
S315200016206A567A5E8421F81F300C0C101224163864
S31520001630C811781EFFFF05A0FFFF15A82DB455AAD7
S31520001640A5A545A245A2A5A555AA2DB415A8FFFF77
S3152000165005A0FFFFFFFF8181BDBDA5A5A5A5A5A569
S31520001660A5A5A5A5A5A5A5A5A5A5A5A5A5A5BDBDD4
S315200016708181FFFF53706F6F707927730000000020
S3152000168062697A6172726520616476656E747572BC
S3152000169065000000436F6E67726174756C617469D2
S315200016A06F6E732100000000596F752077696E21D7
S315200016B000000000010000000102030A0405060BD9
S315200016C00708090C0E000F0D3C3C43C29DB90FD0F4
S315200016D0742E4A526A567A5E8421F81F300C0C10FA
S315200016E012241638C811781EFFFF05A0FFFF15A883
S315200016F02DB455AAA5A545A245A2A5A555AA2DB4A2
S3152000170015A8FFFF05A0FFFFFFFF8181BDBDA5A591
S31520001710A5A5A5A5A5A5A5A5A5A5A5A5A5A5A5A553
S31520001720A5A5BDBD8181FFFF0100000001000000CD
S315200017300100000003000000030000000300000079
S31520001740050000000500000005000000060000005E
S31520001750000000000100000002000000030000005D
S31520001760020000000100000000000000010000004F
S315200017700200000002000000661100206E11002009
S31120001780761100207E110020861100202A
S70520000000DA
