S02800002E2F44656275672F73706F6F7079735F62697A617272655F616476656E747572652E733139C1
S315200000000248854600F004F8FEE7C04600C00120FD
S3152000001080B500AFC046BD4680BD80B500AF00F0BC
S3152000002059FC00F047FC00F005F800F0F1FDC04651
S31520000030BD4680BD80B500AF00F086F8C046BD46FF
S3152000004080BD80B500AF044B00221A602A2000F044
S3152000005063F8C046BD4680BD800D002080B500AF48
S31520000060044B00221A60542000F056F8C046BD46C4
S3152000007080BDC046800D002080B500AFA82000F0CE
S315200000804BF8C046BD4680BD80B500AF034B180077
S3152000009000F042F8C046BD4680BDC04640900200F2
S315200000A080B582B000AF78607B68002B0BD07A6871
S315200000B0074B1A60074B00221A60074B01221A6071
S315200000C0FFF7DAFF00E0C046BD4602B080BDC0465D
S315200000D0780D0020800D00207C0D002080B582B098
S315200000E000AF78607B68002B0BD07A68074B1A60CC
S315200000F0074B00221A60074B00221A60FFF7C4FF45
S3152000010000E0C046BD4602B080BDC046780D002046
S31520000110800D00207C0D002080B582B000AF786075
S31520000120084B00221A60074B7A68013A5A60054B41
S3152000013000229A60034B07221A70C046BD4602B0C1
S3152000014080BDC04610E000E080B500AF024B034AF8
S315200001501A60C046BD4680BD3CC00120610100201A
S3152000016080B500AF0D4B00221A600D4B1B685A1E3E
S315200001700B4B1A600A4B1B68002B09DD094B1B68C9
S31520000180002B02D0FFF778FF05E0FFF77DFF02E0A6
S31520000190054B01221A60C046BD4680BD10E000E036
S315200001A0780D00207C0D0020800D002080B584B0C5
S315200001B000AF0200FB1D1A700F4A0F23FB18127D99
S315200001C01A700F23FB180F22B918FA1D0978127816
S315200001D00A431A700F23FB180F22BA18127804212B
S315200001E08A431A70044A0F23FB181B781375C046DE
S315200001F0BD4604B080BDC0460010024080B584B024
S3152000020000AF0200FB1D1A70114A0F23FB18127D46
S315200002101A70FB1D1B785BB2DB435BB20F22BA1848
S31520000220127852B213405AB20F23FB181A700F23BA
S31520000230FB180F22BA18127804218A431A70044A2E
S315200002400F23FB181B781375C046BD4604B080BD2E
S315200002500010024080B582B000AF0200FB1D1A706C
S31520000260FB1D1B78082B0CD002DC002B05D01AE0D6
S31520000270102B0DD0182B12D015E01820FFF7BEFF3B
S3152000028011E01020FFF7BAFF0820FFF78FFF0AE0E2
S315200002900820FFF7B3FF1020FFF788FF03E01820A0
S315200002A0FFF784FFC046C046BD4602B080BD80B57C
S315200002B082B000AF4020FFF7A1FF174B174A1A6004
S315200002C00120FFF79BFF0220FFF770FFFFF7C6FE16
S315200002D04020FFF76BFFFFF7C1FE0F4AFB1D527C44
S315200002E01A704020FFF78AFFFFF7B8FEFB1DFA1DA4
S315200002F012787F218A431A70FB1D1B78002B00D0B1
S31520000300E6E7C0464020FFF751FF034B044A1A6038
S31520000310C046BD4602B080BD0010024055550000C3
S315200003205555555580B584B000AF0200FB1D1A7097
S315200003304020FFF763FF1C4B1C4A1A600320FFF77F
S3152000034035FFFB1D1B781800FFF784FFFFF786FE9D
S315200003504020FFF72BFFFFF781FE134A0F23FB18E0
S31520000360527C1A704020FFF749FF0F4B104A1A6043
S31520000370FB1D1B780822134004D00820FFF76AFFD4
S31520000380FFF795FFFB1D1B781022134004D0102089
S31520000390FFF760FFFFF78BFF0F23FB181B78180072
S315200003A0BD4604B080BDC046001002405555000031
S315200003B05555555580B582B000AF0200FB1D1A7009
S315200003C0BB1D0A1C1A701A4AFB1D1B785375BB1DD0
S315200003D01B781800FFF73EFFFFF740FE4020FFF78F
S315200003E0E5FEFFF73BFE4020FFF708FFBB1D1B780D
S315200003F00822134004D00820FFF72CFFFFF757FFF1
S31520000400BB1D1B781022134004D01020FFF722FFBB
S31520000410FFF74DFF064B00225A754020FFF7C6FE18
S315200004200020FFF717FFC046BD4602B080BDC0467C
S315200004300010024080B582B000AF0200FB1D1A708A
S31520000440BB1D0A1C1A704020FFF7D8FEBB1D1B7867
S315200004501800FFF7FFFE0320FFF7D0FEBB1D1A781A
S31520000460FB1D1B7811001800FFF7A4FFC046BD46F0
S3152000047002B080BD80B582B000AF0200FB1D1A70AD
S31520000480BB1D0A1C1A704020FFF7B8FEBB1D1B7847
S315200004901800FFF7DFFE0120FFF788FE0220FFF796
S315200004A0ADFEBB1D1A78FB1D1B7811001800FFF747
S315200004B081FFC046BD4602B080BD80B582B000AF88
S315200004C00200FB1D1A70FB1D1B781800FFF72AFF80
S315200004D0FB1D1B781800FFF725FF03001800BD46FB
S315200004E002B080BD80B500AF4020FFF75FFE0A2036
S315200004F0FFF7D6FD7820FFF781FE1E20FFF7EEFDE1
S315200005002020FFF753FE6420FFF7E8FD18213E2048
S31520000510FFF790FF18213F20FFF78CFF1821C020FE
S31520000520FFF788FF18214020FFF784FF1821B82005
S31520000530FFF780FF0020FFF78DFEC046BD4680BD39
S3152000054080B582B000AFFB1D00221A7023E0FB1D90
S315200005501B78482252421343DBB218211800FFF7BA
S3152000056069FF18214020FFF765FFBB1D00221A7086
S3152000057008E018210020FFF77DFFBB1D1A78BB1D60
S3152000058001321A70BB1D1B783F2BF2D9FB1D1A783E
S31520000590FB1D01321A70FB1D1B78072BD7D9C046CD
S315200005A0BD4602B080BD90B585B000AF04000800FE
S315200005B01100FB1D221C1A70BB1D021C1A707B1D0C
S315200005C00A1C1A70FB1D1B78002B00D1B4E0FB1D02
S315200005D01B78802B00D9AFE0BB1D1B78002B00D1E8
S315200005E0ACE0BB1D1B78402B00D9A7E07B1D1B78F8
S315200005F0012B04D07B1D1B78002B00D0A0E0BB1D57
S315200006001B78013B002B00DA0733DB101A000C2382
S31520000610FB181A700F23FB1801221A700F23FB18E0
S315200006201A78BB1D1B78013B47490B4004D5013B7B
S31520000630082149420B4301339A400F23FB181A70B5
S315200006407B1D1B78002B06D10F23FB180F22BA180F
S315200006501278D2431A70FB1D1B78402B0AD90D2322
S31520000660FB1810221A700E23FB18FA1D1278413A35
S315200006701A7009E00D23FB1808221A700E23FB18A6
S31520000680FA1D1278013A1A700E23FB181B784022A5
S315200006901343DAB20D23FB181B7819001000FFF75D
S315200006A0C9FE0C23FB181B78482252421343DAB2A8
S315200006B00D23FB181B7819001000FFF7BBFE0B2338
S315200006C0FC180D23FB181B781800FFF7F6FE030015
S315200006D023700E23FB181B7840221343DAB20D2316
S315200006E0FB181B7819001000FFF7A4FE7B1D1B7852
S315200006F0012B0AD10F23FB180F22B9180B22BA1887
S31520000700097812780A431A7009E00F23FB180F2282
S31520000710BA180B217918127809780A401A700D2315
S31520000720FB181A780F23FB181B7811001800FFF707
S31520000730A1FEFFF793FC04E0C04602E0C04600E0BD
S31520000740C046BD4605B090BD0700008080B584B088
S3152000075000AF78600023FB6020E07B681A68FB68A6
S3152000076004335B00D31804331A787B68DB68DBB26A
S31520000770D318D8B27B681A68FB6804335B00D31899
S3152000078005331A787B681B69DBB2D318DBB20122EA
S315200007901900FFF708FFFB680133FB607B681B68C5
S315200007A01A68FB689A42D8DCC046BD4604B080BDB4
S315200007B080B584B000AF78600023FB6020E07B68C2
S315200007C01A68FB6804335B00D31804331A787B68F5
S315200007D0DB68DBB2D318D8B27B681A68FB680433AF
S315200007E05B00D31805331A787B681B69DBB2D318F4
S315200007F0DBB200221900FFF7D6FEFB680133FB604F
S315200008007B681B681A68FB689A42D8DCC046BD46DE
S3152000081004B080BD80B582B000AF78607B681800D8
S31520000820FFF7C6FF7B68DA687B685B68D2187B684F
S31520000830DA607B681A697B689B68D2187B681A61C4
S315200008407B68DB68002B07DD7B68DA687B681B68C2
S315200008505B68D318802B04DD7B685B685A427B6813
S315200008605A607B681B69002B07DD7B681A697B68E9
S315200008701B689B68D318402B04DD7B689B685A4213
S315200008807B689A607B681800FFF760FFC046BD460C
S3152000089002B080BD80B584B000AFF860B9607A60E0
S315200008A0FB68BA685A60FB687A689A60C046BD469B
S315200008B004B080BD80B500AF044B054A1A60034BD7
S315200008C0034A9A60C046BD4680BDC046001002401D
S315200008D05555555580B500AF0C4B0D4A1A6001226F
S315200008E02721382000F0FEF8012227210E2000F0D3
S315200008F0F9F800220221012000F0F4F80122272134
S31520000900062000F0EFF8C046BD4680BD001002402C
S315200009105555555580B584B000AF0200FB1D1A70A1
S315200009200C4A0F23FB18127D1A700F23FB180F2277
S31520000930B918FA1D097812780A431A70054A0F2346
S31520000940FB181B7804210B43DBB21375C046BD464A
S3152000095004B080BD0010024080B584B000AF020014
S31520000960FB1D1A700D4A0F23FB18127D1A70FB1DF2
S315200009701B78DB43DAB20F23FB180F21791809788D
S315200009800A401A70054A0F23FB181B7804210B43D3
S31520000990DBB21375C046BD4604B080BD00100240D0
S315200009A080B582B000AF0200FB1D1A700120FFF750
S315200009B0D3FF0220FFF7D0FFFB1D1B78180000F0A5
S315200009C061F8C046BD4602B080BD80B582B000AF9A
S315200009D00200FB1D1A700120FFF79CFF0220FFF783
S315200009E0BBFFFB1D1B78180000F04CF8C046BD4627
S315200009F002B080BD90B583B000AF0E4B0D4A126891
S31520000A001204120C1A600220FFF784FF0120FFF760
S31520000A1081FFFC1D00F04EF803002370054B054AAC
S31520000A20126805490A431A60FB1D1B781800BD464B
S31520000A3003B090BD001002400000555590B583B01C
S31520000A4000AF0E4B0D4A12681204120C1A600120D8
S31520000A50FFF782FF0220FFF75DFFFC1D00F02AF85A
S31520000A6003002370054B054A126805490A431A609C
S31520000A70FB1D1B781800BD4603B090BD0010024038
S31520000A800000555580B582B000AF0200FB1D1A70DC
S31520000A904020FFF73FFF064AFB1D1B785375FFF7E3
S31520000AA0D0FA4020FFF758FFC046BD4602B080BDB1
S31520000AB00010024080B582B000AF4020FFF72AFF29
S31520000AC0FFF7CCFA064AFB1D527C1A704020FFF72E
S31520000AD043FFFB1D1B781800BD4602B080BDC046F3
S31520000AE00010024080B582B000AF39601100FB1DB6
S31520000AF0021C1A703B1D0A1C1A80C046FFF79EFF77
S31520000B0003005BB2002BF9DB0820FFF7C9FAFB1DB7
S31520000B101B781800FFF744FF3B1D1B88012B04D1CF
S31520000B203B681800FFF7BCFA03E03B681800FFF7A4
S31520000B30D5FAC046BD4602B080BD80B582B000AFB2
S31520000B400200FB1D1A700220FFF7E4FE0120FFF7CA
S31520000B5003FFC046FFF772FF03005BB2002BF9DBF1
S31520000B600820FFF79DFAFB1D1B781800FFF72DFFC5
S31520000B702B20FFF795FAC046BD4602B080BD80B552
S31520000B8084B000AF786039607B68002B25D07B6805
S31520000B90142B22D83B68002B21D03B68022B1ED871
S31520000BA07B68DAB20F23FB18013A1A703B68022BD6
S31520000BB006D10F23FB180F22BA18127840321A706A
S31520000BC00F23FB181B78802252421343DBB20122EB
S31520000BD027211800FFF786FF02E0C04600E0C04646
S31520000BE0BD4604B080BD80B582B000AF786006E017
S31520000BF07B685A1C7A601B781800FFF79EFF7B687B
S31520000C001B78002BF4D1C046BD4602B080BDC0463D
S31520000C1080B500AF104B114A1A600F4B0E4A52682E
S31520000C20FF210A405A600C4B0B4A52685A600A4B05
S31520000C30094AD2681204120CDA60074B064AD268B7
S31520000C40AA2109040A43DA60034B034A527DD2B231
S31520000C505A75C046BD4680BD000C0240555500550C
S31520000C6080B582B000AFFB1D01221A7020E0FB1D6B
S31520000C701B78180000F02AF800F054F80200BB1D7B
S31520000C801A70BB1D1B78002B0DD0002000F01EF81B
S31520000C90FB1D1B785A1EBB1D1B78013B0A4992007F
S31520000CA08A18D35C0CE0FB1D1A78FB1D01321A70E2
S31520000CB0FB1D1B78042BDAD9002000F007F8FF2350
S31520000CC01800BD4602B080BD840D002080B582B0DC
S31520000CD000AF0200FB1D1A70FB1D1B78042B18D8D1
S31520000CE09A000E4BD3181B689F460D4B00225A754F
S31520000CF00FE00B4B10225A750BE0094B20225A7538
S31520000D0007E0074B40225A7503E0054B80225A75AF
S31520000D10C046C046BD4602B080BDC046940D0020E8
S31520000D20000C024080B582B000AF124AFB1D527CF7
S31520000D301A70FB1D1B780822134001D0042315E0EE
S31520000D40FB1D1B780422134001D003230EE0FB1D5C
S31520000D501B780222134001D0022307E0FB1D1B78DB
S31520000D600122134001D0012300E000231800BD46D4
S31520000D7002B080BD000C0240000000000000000010
S31520000D80010000000102030A0405060B0708090CEE
S31520000D900E000F0DEA0C0020F20C0020FA0C0020A9
S30D20000DA0020D00200A0D0020BF
S70520000000DA
