S01B00002E2F44656275672F666C6970666C6F705F6972712E7331395F
S315200000000248854600F004F8FEE7C04600C00120FD
S3152000001080B500AF00F00EF8044B00225A75034A53
S31520000020034B1B68DBB21375F9E7C046000C024090
S31520000030B001002080B500AF1D4B1D4A1268120C7E
S3152000004012041A601A4B1A4A1268A82149010A4357
S315200000501A60184B184A1A60184B184A92681205EB
S31520000060120D9A60154B154A92688021C9010A43E0
S315200000709A60134B124A126808210A431A60104BE1
S315200000800F4AD26808210A43DA600D4B0C4A92685F
S3152000009008218A439A600B4B0B4A1A600B4B0B4A7A
S315200000A01268802189000A431A60C046BD4680BD79
S315200000B000100240000C02405555555500380140AD
S315200000C0003C014064C00120D100002000E100E096
S315200000D080B582B000AF204B5A69FB1D1A70FB1DFC
S315200000E01B780822134032D01C4B1B7CDBB21A0033
S315200000F00123134007D0102000F036F8184B1B6858
S315200001005A1C174B1A60154B1B7CDBB21A000223B4
S31520000110134005D0202000F027F8114B00221A604A
S315200001200E4B1B7CDBB21A000423134009D040205F
S3152000013000F01AF80B4A0B4B5B7DDBB2DB43DBB2DC
S315200001405375054B044A526908210A435A61C04631
S31520000150BD4602B080BDC046003C014000100240B2
S31520000160B0010020000C024080B582B000AF020032
S31520000170FB1D1A700D490D4B1B7DDAB2FB1D1B783A
S315200001801343DBB20B750949084B1B7DDBB25BB20F
S31520000190FA1D127852B2D24352B213405BB2DBB28E
S315200001A00B75C046BD4602B080BDC0460010024059
S309200001B00000000025
S70520000000DA
